:100000000C9405010C9436010C9436010C943601C5
:100010000C9436010C9436010C9436010C94360184
:100020000C9436010C9436010C9436010C94360174
:100030000C9436010C9436010C9436010C94360164
:100040000C9436010C94550B0C9436010C9436012B
:100050000C9436010C9436010C9436010C949816CD
:100060000C9436010C945A190C942E1A0C943601E7
:100070000C9436010C9436010C9436010C94360124
:100080000C94830B0C9436010C9436010C943601BD
:100090000C9487190C94791A0C9436010C9436013F
:1000A0000C9436010C9436010C944C0A0C943601D5
:1000B0000C9436010C9436010C9436010C94B10B5F
:1000C0000C9436010C9436010C9436010C94B4193E
:1000D0000C94C41A0C9436010C94E1190C940F1B67
:1000E0000C94360100002100240027002A002D0076
:1000F0003000330001010000040107010A01000083
:100100002200250028002B002E00310034000201BF
:100110000000050108010B0100002000230026005B
:1001200029002C002F00320000010000030106010D
:10013000090105050505070508080808020202026D
:100140000A0A080804040404010101010101010173
:100150000303030303030303040707070C0C0C0C3E
:100160000C0C0C0C02020202060606060606060627
:100170000B0B0B0B0B0B0B0B0102102020080810B4
:100180002040102040800201020108040201010207
:1001900004081020408080402010080402018004E0
:1001A000020180402010080402010804020101023B
:1001B0000408102040800102040810204080000044
:1001C000090A02080B0C0D070603040100000000D9
:1001D000000000000000000000000000000000001F
:1001E0000000000000000000000011100F000000DF
:1001F00000000000000000000000000000000000FF
:1002000000000000D20EB815D81B11241FBECFEF7E
:10021000D1E2DEBFCDBF00E00CBF12E0A0E0B2E053
:10022000E6EBFFE300E00BBF02C007900D92A037A2
:10023000B107D9F716E0A0E7B2E001C01D92A936D8
:10024000B107E1F712E0CAE0D2E000E006C0229771
:100250000109FE010BBF0E94D51FC430D10780E009
:100260000807A9F70E94AE1C0C94151F0C940000FF
:1002700010927302109272021092740280E496E05F
:100280000E94010F0E94E40E0895CF92DF92EF9238
:10029000FF920F931F93CF93DF93EC018B017A01B1
:1002A0006901E0917002F0917102309709F019959F
:1002B000209749F0ED89FE89309729F0CE01B801E9
:1002C000A70196011995DF91CF911F910F91FF9092
:1002D000EF90DF90CF900895DF92EF92FF920F930F
:1002E0001F93CF93DF93EC01D62E7A0189E190E042
:1002F0000E94E21D082F192F01151105B9F1CE0139
:100300000E94181FF80191838083009731F4C8017F
:100310000E947C1E00E010E029C020914C02309128
:100320004D02C901AA2797FDA095BA2FF801828333
:100330009383A483B5832F5F3F4F30934D02209367
:100340004C0281E090E0938B828B12861386148698
:100350001586D48AF68AE58A809175029091760294
:10036000908F878B1093760200937502C801DF91FE
:10037000CF911F910F91FF90EF90DF900895CF9252
:10038000DF92EF92FF920F931F93DF93CF93CDB73E
:10039000DEB768970FB6F894DEBF0FBECDBF4983B6
:1003A0005A836B837C830D831E832F833887C98692
:1003B000DA86EB86FC861D861E861F86188A198AB9
:1003C0001A8A1B8A1C8A40955095609570954D8BB2
:1003D0005E8B6F8B788F68E170E0AE014F5F5F4F8F
:1003E0000E94F51068960FB6F894DEBF0FBECDBF21
:1003F000CF91DF911F910F91FF90EF90DF90CF9001
:1004000008952F923F924F925F926F927F928F92B8
:100410009F92AF92BF92CF92DF92EF92FF920F9393
:100420001F93DF93CF93CDB7DEB76C970FB6F894D9
:10043000DEBF0FBECDBF1C012A013B01098F1A8F01
:100440002B8F3C8F1AA90BA9282D392D4A2D5B2DF6
:10045000C801E92FF82F80E090E0DC0109C061912C
:10046000860F911DA11DB11D2150304040405040CC
:10047000211531054105510591F749825A826B8258
:100480007C82298D3A8D4B8D5C8D2D833E834F83ED
:100490005887C986DA86EB86FC868D869E86AF866F
:1004A000B88A898B9A8BAB8BBC8B409450946094A8
:1004B00070944D8A5E8A6F8A788EC10168E170E01F
:1004C000AE014F5F5F4F0E94F510882331F4C101E8
:1004D000B401412F502F0E94F51090E06C960FB69A
:1004E000F894DEBF0FBECDBFCF91DF911F910F916A
:1004F000FF90EF90DF90CF90BF90AF909F908F9044
:100500007F906F905F904F903F902F9008956F92E3
:100510007F928F929F92AF92BF92CF92DF92EF9293
:10052000FF920F931F937A2C6B2CEA2DFB2DDF018A
:100530000D900020E9F70F920F92AE1BBF0B4D01FB
:10054000AA24BB24EDB7FEB7718262820E94010229
:100550000F900F901F910F91FF90EF90DF90CF9031
:10056000BF90AF909F908F907F906F900895EF9283
:10057000FF920F931F93DF93CF93CDB7DEB7C05495
:10058000D0400FB6F894DEBF0FBECDBF7C01262F42
:10059000809172029091730260E470E08E010F5FAF
:1005A0001F4FA8010E94F90FAC0197FD0DC02E2D21
:1005B0003F2DD901F80188E101900D928150E1F7BA
:1005C00081E04831510509F080E0C05CDF4F0FB693
:1005D000F894DEBF0FBECDBFCF91DF911F910F9179
:1005E000FF90EF9008958F929F92AF92BF92CF921B
:1005F000DF92EF92FF920F931F93CF93DF93C091FF
:100600007502D091760283E0882E912C3BC00E9427
:10061000E0169B01AC018A859B85AC85BD856A8906
:100620007B896130710559F579018A01E81AF90A67
:100630000A0B1B0BC801B701693E03E0700700E01D
:10064000800700E09007D8F00A811B812C813D8152
:10065000A880B98080917202909173024FE450E5B6
:1006600065E47EE4CC24DD2476010E9487020E94AA
:10067000E0166A877B878C879D879B8A8A8A0F888A
:10068000D88DC02D209719F6DF91CF911F910F9132
:10069000FF90EF90DF90CF90BF90AF909F908F90A2
:1006A0000895CF93DF93EC018A899B89833091056C
:1006B000B1F482E090E09B8B8A8BFB018481958171
:1006C000A681B7818E839F83A887B987CE0162E018
:1006D00070E040E050E020E030E00E9445018A896F
:1006E0009B898530910521F482E090E09B8B8A8B79
:1006F000DF91CF910895CF93DF93EC018A899B8995
:100700008330910521F4CE0164E070E003C0CE0196
:1007100063E070E040E050E020E030E00E944501FE
:100720008C89882329F081E090E09B8B8A8B02C022
:100730001B8A1A8ADF91CF9108952F923F924F9290
:100740005F926F927F928F929F92AF92BF92CF9261
:10075000DF92EF92FF920F931F93DF93CF93CDB76A
:10076000DEB7C454D0400FB6F894DEBF0FBECDBF85
:100770005C016B01FB01E484F58406851785FC01AF
:100780000288F389E02D2396FFAFEEAF239784E034
:1007900090E0F501938B828B118A108AF786E686AA
:1007A0002E010894411C511C3AC037014801F1E464
:1007B000EF16F1040105110528F090E4692E712C63
:1007C000812C912C25967FAE6EAE2597809172027A
:1007D00090917302B301A20120E00E94F90F1C0165
:1007E0002FEF8F3F920701F1F501808991892596BE
:1007F0002EAD3FAD2597820F931F918B808BC50146
:1008000065E070E0A30192010E944501C101AA27A1
:1008100097FDA095BA2FE81AF90A0A0B1B0BE114F1
:10082000F1040105110509F6F601008511852285FF
:100830003385C480D580E680F780809172029091E4
:1008400073024FE45BE461E479E50E94BF01239603
:100850002EAD3FAD2397F501338B228BCC5BDF4F61
:100860000FB6F894DEBF0FBECDBFCF91DF911F91C1
:100870000F91FF90EF90DF90CF90BF90AF909F903F
:100880008F907F906F905F904F903F902F90089542
:10089000CF93DF93C0917502D09176020BC08A8905
:1008A0009B898230910518F0CE010E947B030F884E
:1008B000D88DC02D209799F7DF91CF910895CF92D1
:1008C000DF92EF92FF920F931F93DF93CF93CDB7F9
:1008D000DEB7C050D1400FB6F894DEBF0FBECDBF1B
:1008E000FC01E484F58406851785F1E0EF16F1E05C
:1008F000FF06F0E00F07F0E01F0728F0E12C21E0F1
:10090000F22E012D112D8091720290917302B70188
:100910006E010894C11CD11CA60120E00E94F90FB1
:1009200081E08093740280E090E060E070E0A701D5
:1009300096010E944501C050DF4F0FB6F894DEBF0C
:100940000FBECDBFCF91DF911F910F91FF90EF9020
:10095000DF90CF900895AF92BF92CF92DF92EF9247
:10096000FF920F931F93DF93CF93CDB7DEB76897B6
:100970000FB6F894DEBF0FBECDBF0E948B128091E0
:10098000720290917302009709F488C0209174025A
:100990002223C9F443E45EE468E57EE400E010E06D
:1009A00020E031E0C12CF0E1DF2EE12CF12CE0E081
:1009B000AE2EE2E0BE2E0E94870264EF71E080E07E
:1009C00090E00E94141780917402882311F00E9415
:1009D000F3028E010F5F1F4FC80161E00E94B70252
:1009E000882309F45BC089819A81AB81BC818334FF
:1009F0002EE4920728E5A2072EE4B20719F4C801F5
:100A00000E945F0400917502109176027E010894A5
:100A1000E11CF11C3FC0F801828993890097B9F16C
:100A2000228133814481558189859A85AB85BC8536
:100A3000281739074A075B0751F589819A81AB81ED
:100A4000BC818735F2E59F07F4E5AF07F5E4BF0702
:100A5000D1F08F342BE4920721E4A20729E5B207F5
:100A600049F08334ECE49E07E3E5AE07E5E4BE0716
:100A700071F405C0C801B7010E94510308C0C80144
:100A80000E947B0304C0C801B7010E949D03F801C6
:100A90000789108D0115110509F0BDCF68960FB6B5
:100AA000F894DEBF0FBECDBFCF91DF911F910F91A4
:100AB000FF90EF90DF90CF90BF90AF900895FC0132
:100AC0008481823051F48781813039F485818F3F70
:100AD00031F481E09681923419F080E0089580E04D
:100AE00008952F923F924F925F926F927F928F92D2
:100AF0009F92AF92BF92CF92DF92EF92FF920F93AD
:100B00001F93DF93CF93CDB7DEB7C250D1400FB65E
:100B1000F894DEBF0FBECDBF6A0140E051E07E0118
:100B20000894E11CF11C97010E941D124C0197FDD5
:100B30005AC0AA24BB246624772400E010E020E0F9
:100B40001701A2E04A2E512C4C0E5D1E47C07101C8
:100B5000E00EF11EF7013081F201E00FF11F8081FC
:100B6000843031F0853041F18230B1F5370134C045
:100B70005701C701CF5FDE4F2883C150D140CE5F00
:100B8000DE4F3883C250D1400E945F05CF5FDE4FF9
:100B90002881C150D140CE5FDE4F3881C250D14054
:100BA0008823D1F0F3018581F6018183F7018281E9
:100BB000F601828321E010C0F5019281F601828165
:100BC000981751F4F701828187FF04C08F77F601EF
:100BD000838302C0F6018483030F111D08151905D4
:100BE0000CF4B5CF01C020E0822FCE5FDE4F0FB6F0
:100BF000F894DEBF0FBECDBFCF91DF911F910F9153
:100C0000FF90EF90DF90CF90BF90AF909F908F902C
:100C10007F906F905F904F903F902F900895DF925C
:100C2000EF92FF920F931F93CF93DF93EC018B0111
:100C3000FB01618170E00E94C113CE010896F801AA
:100C400063810E94FA0E82E0D82ED986B0E4EB2EA2
:100C5000F12CFB86EA86CE010E96F80164810E9493
:100C6000FA0EDF86F98AE88AD0937302C093720283
:100C7000DF91CF911F910F91FF90EF90DF9008953A
:100C8000EF92FF920F931F93DF93CF9300D00F92B9
:100C90000F92CDB7DEB77C016115710521F061308F
:100CA0007105F9F40FC060E070E08E010F5F1F4F17
:100CB000A8010E9471058823A1F0C701B8010E9414
:100CC0000F060FC08091720290917302E816F90628
:100CD00041F40E9448041092730210927202109222
:100CE00074020F900F900F900F900F90CF91DF91A3
:100CF0001F910F91FF90EF9008958F929F92AF9266
:100D0000BF92CF92DF92EF92FF920F931F93CF93F8
:100D1000DF93EC018091720290917302009751F180
:100D200020917402222331F12A893B892230310536
:100D300021F50F920F920A811B812C813D81CE807B
:100D4000DF80E884F9844B01AA24BB24EDB7FEB709
:100D50005283418347E552E564E575E40E94010250
:100D60009C010F900F90009751F485E090E09B8BD1
:100D70008A8B05C02FEF3FEF02C02EEF3FEFC90176
:100D8000DF91CF911F910F91FF90EF90DF90CF9067
:100D9000BF90AF909F908F9008950E947D06089518
:100DA0000E94370D85E361E00E941B186E98E4E015
:100DB000F1E08081877F808380818460808385E308
:100DC00061E00E943F18E5E0F1E08081846080836B
:100DD00008950F931F93082F162F85E360E00E945C
:100DE0003F1802600EBD0DB407FEFDCF1EBD0DB451
:100DF00007FEFDCF85E361E00E943F181F910F9130
:100E00000895EF92FF920F931F93CF93DF93082FD4
:100E1000162FEA0185E360E00E943F1802600EBDD4
:100E20000DB407FEFDCFFE01812F06C091919EBD3E
:100E30000DB407FEFDCF81508823C1F785E361E043
:100E40000E943F18C10FD11DCE01DF91CF911F919C
:100E50000F91FF90EF9008951F93182F85E360E0A6
:100E60000E943F181EBD0DB407FEFDCF1EBC0DB481
:100E700007FEFDCF85E361E00E943F188EB51F910C
:100E800008951F9388E760E20E94E90688E760E022
:100E90000E94E9066AE070E080E090E00E9414178A
:100EA00010E002C0115039F088E60E942C0780FF44
:100EB000F9CF81E001C080E01F910895EF92FF9289
:100EC0000F931F93CF93DF93082F162FEA0185E32B
:100ED00060E00E943F180EBD0DB407FEFDCF812FCC
:100EE000FE0107C01EBC0DB407FEFDCF9EB5919359
:100EF00081508823B9F785E361E00E943F18C10F54
:100F0000D11DCE01DF91CF911F910F91FF90EF90F6
:100F1000089580917702089588EF0E942C07807CC5
:100F2000803481F0813418F4882309F108958038E1
:100F300019F0803CF1F417C088ED0E942C0781FD68
:100F400006C00BC088ED0E942C0781FD06C088ED0D
:100F50006BEC0E94E90683E007C088ED69EC0E9413
:100F6000E90682E001C081E0809377020895109243
:100F70007702089588E86AE10E94E9060E94410725
:100F8000882331F489EE95E062E172E00E94F81C5A
:100F900088ED61ED0E94E90680ED60E60E94E906B9
:100FA00088EE64E00E94E90688EE0E942C0782FF2A
:100FB000FBCF0E948C0788EC60E20E94E90680E883
:100FC00061E00E94E90608951F9388EC0E942C07B7
:100FD000282F86FF02C010E401C010E025FF03C0E7
:100FE0000E948C07106288EC612F0E94E906812F15
:100FF0001F91089580EB0E942C0708951F93769906
:1010000004C00E94E407182F01C010E08091050180
:1010100083FD02C00E94FA07812F1F910895FC01F1
:10102000DC018FEF90E021E030E02D933D930197BC
:10103000E1F783E090E093A382A395A384A397A311
:1010400086A391A780A725E030E033A722A7DF0180
:10105000AE59BF4F11969C938E93EC59FF4F9183DD
:1010600080830895EF92FF921F93CF93DF938FEFCA
:1010700092E00E94E21D192FE82EE7017E01F92E71
:10108000F701E150FF4F11821082C7018F5F9E4F21
:101090000E940F088E2D912FDF91CF911F91FF900D
:1010A000EF900895FC01E150FF4F408151811416EB
:1010B000150684F4DC01EC91F0E0EE0FFF1FE80F61
:1010C000F91FEF5FFE4F21E030E0808191814817EA
:1010D000590714F420E030E0C90108950F931F93DD
:1010E0008C010E945208009719F0202F312F02C066
:1010F00020E030E0C9011F910F910895CF93DF9355
:10110000EC010E945208009711F1E881F0E0EE0F27
:10111000FF1FEC0FFD1FEF5FFE4FA081B181FE01AD
:10112000E150FF4F808191818A1B9B0BAC0FBD1F4B
:10113000FE0120E030E004C04D9141932F5F3F4F0E
:1011400028173907CCF3C150DF4F99838883DF918B
:10115000CF9108950F931F93CF93DF93FC01E1503C
:10116000FF4FA081B181FA01EA0FFB1FEF3FF105AC
:1011700009F0A4F4EB01A80FB91F20E030E004C08F
:1011800069916D932F5F3F4F24173507CCF3815042
:101190009F4FDC011196FC93EE9302C040E050E0BB
:1011A000CA01DF91CF911F910F9108950895DC013D
:1011B000862F90E0FC01E858FE4FE4911496EC93E2
:1011C000149750E0FA01E858FE4FE4911596EC931D
:1011D00015978E5C9E4FFC01849190E0880F991FBB
:1011E000FC01E250FF4F6591749116966C9316972F
:1011F00017967C931797FA01EE5CFE4FE491F0E0AE
:10120000EE0FFF1FE85EFE4F459154911A964C93E6
:101210001A971B965C931B978C519F4FFC0145912D
:10122000549118964C93189719965C931997822F9E
:10123000932FF1E0853F9F0714F084EF91E049E39D
:1012400050E0849F9001859F300D949F300D1124B4
:10125000245E3F4F442737FD4095542F1C962D9315
:101260003D934D935C931F970895CF93DF93EC01CB
:10127000E885F98580819C81892B8083EE81FF81BF
:1012800090818C8180958923808384E090E00E9406
:101290003B17EE81FF8180819C81892B80838AE0CE
:1012A00090E00E943B17EE81FF8190818C818095B8
:1012B00089238083E885F98590818C8180958923B5
:1012C0008083DF91CF910895CF93DF93EC010E944B
:1012D000EE16605B794B8F4F9F4F688B798B8A8BB3
:1012E0009B8BEA85FB8580819D818923D9F00E94B3
:1012F000EE169B01AC0188899989AA89BB8982175E
:101300009307A407B50768F70DC00E94EE169B016E
:10131000AC0188899989AA89BB8982179307A40798
:10132000B507B0F0EA85FB8580819D81892369F34B
:101330000E94EE162C853D854E855F85620F731FDA
:10134000841F951F688B798B8A8B9B8B81E001C0F2
:1013500080E0DF91CF910895E2E7F0E080818D7F1A
:1013600080830895EF92FF920F931F93CF93DF93A3
:10137000EC010E94EE169B01AC0188899989AA892B
:10138000BB8982179307A407B50718F40E94AC091C
:1013900025C0EA85FB8580819D818923F9F40E941F
:1013A000AC090E94EE167B018C018C859D85AE8573
:1013B000BF850D97A109B109288939894A895B89B7
:1013C000821B930BA40BB50B8E0D9F1DA01FB11F8D
:1013D00088839983AA83BB8381E001C080E0DF9189
:1013E000CF911F910F91FF90EF9008950E94AC094B
:1013F000E0EAF0E080818C7F8083E1EAF0E08081A8
:101400008F7E808380818860808380818B7F8083D2
:101410008081836080831092A5001092A4000895BB
:101420000F931F93CF93DF93EC018B010E94F6097A
:101430001093790200937802D695C795D695C795F3
:101440002197CF3FD10519F010F0CFEFD0E0D09326
:10145000A900C093A80080917200826080937200FE
:10146000DF91CF911F910F9108950F931F93CF9309
:10147000DF93EC018B010E943509CE010E946409C3
:10148000882329F088E190E0B8010E94100ADF91DA
:10149000CF911F910F9108951F920F920FB60F9247
:1014A0000BB60F9211242F933F934F935F936F933B
:1014B0007F938F939F93AF93BF93EF93FF93E091AD
:1014C0007802F0917902309709F01995FF91EF9128
:1014D000BF91AF919F918F917F916F915F914F914C
:1014E0003F912F910F900BBE0F900FBE0F901F904A
:1014F00018959B01CB014C9669E370E00E94711F27
:1015000081E090E02115310511F480E090E09B012D
:101510006817790708F49C01C9010895EF92FF92BA
:101520000F931F93CF93DF93EB017A018C01DC01C2
:10153000A55FBC4F8C9187FF03C01982188237C00A
:10154000C801880F991F800F911F880F991F880F5E
:10155000991F2C91332727FD3095280F391F409173
:101560007A0250E02417350714F52C91332727FD14
:101570003095280F391FF901EE0FFF1FE20FF31FFF
:10158000E558FD4F208126FF12C02C91332727FDFF
:101590003095280F391FF901EE0FFF1FE20FF31FDF
:1015A000E558FD4F80818F7360E00E943F18F8017D
:1015B000E55FFC4F80818F5F8083C801880F991F92
:1015C000800F911F880F991F880F991F2081332743
:1015D00027FD3095280F391F40917A0250E02417DB
:1015E00035070CF053C020812C300CF04FC04881DF
:1015F00059812081332727FD3095280F391FD901C4
:10160000AA0FBB1FA20FB31FA558BD4F11962D9156
:101610003C911297420F531FD70111965C934E9342
:101620002081332727FD3095280F391FD901AA0FB4
:10163000BB1FA20FB31FA558BD4F2C9126FF2EC074
:101640002081332727FD3095280F391FF901EE0F30
:10165000FF1FE20FF31FE558FD4F80818F7361E09C
:101660000E943F181BC080E49CE9F70191838083AE
:1016700007C0888199810496D70111969C938E9317
:10168000F801E55FFC4F8FEF808308C08881998166
:101690000496BCE980349B0730F3EBCFDF91CF9108
:1016A0001F910F91FF90EF9008951F920F920FB628
:1016B0000F920BB60F9211242F933F934F935F938A
:1016C0006F937F938F939F93AF93BF93EF93FF930A
:1016D00081E090E064E870E048E850E00E948E0A03
:1016E000FF91EF91BF91AF919F918F917F916F91FA
:1016F0005F914F913F912F910F900BBE0F900FBEB6
:101700000F901F9018951F920F920FB60F920BB665
:101710000F9211242F933F934F935F936F937F9377
:101720008F939F93AF93BF93EF93FF9382E090E0EB
:1017300064E970E048E950E00E948E0AFF91EF9161
:10174000BF91AF919F918F917F916F915F914F91D9
:101750003F912F910F900BBE0F900FBE0F901F90D7
:1017600018951F920F920FB60F920BB60F9211247D
:101770002F933F934F935F936F937F938F939F9399
:10178000AF93BF93EF93FF9380E090E064E271E04A
:1017900048E251E00E948E0AFF91EF91BF91AF9114
:1017A0009F918F917F916F915F914F913F912F9179
:1017B0000F900BBE0F900FBE0F901F901895FC015D
:1017C00080917A02803390F480838F5F80937A02D5
:1017D000808190E0FC01EE0FFF1FE80FF91FE55834
:1017E000FD4F88EB9BE09283818308958FEF808388
:1017F0000895DF92EF92FF920F931F93CF93DF93A1
:10180000EC01D62E8A0179018881803308F083C0EB
:10181000862F61E00E941B184881842F90E0FC0114
:10182000EE0FFF1FE80FF91FE558FD4F9D2D9F7329
:101830008081807C892B808380E292E0801B910BE9
:1018400024E030E0B9010E94851F698380E699E0B9
:101850008E199F09B9010E94851F6A83842F6CE04D
:101860000E94651F90E09C01220F331F280F391F33
:10187000220F331F220F331F40E050E0BA01620FE6
:10188000731FFB01EE0FFF1FE60FF71FE558FD4F1B
:10189000608166FD34C04F5F5F4F4C30510571F77A
:1018A00043C01092800082E08093810010928500F6
:1018B00010928400B19A80916F00826080936F00D3
:1018C0001EC08230910569F41092900082E08093EE
:1018D0009100109295001092940088BB8093710043
:1018E0000EC0009761F41092200182E080932101E4
:1018F00010922501109224018ABB80937300888185
:1019000090E0FC01EE0FFF1FE80FF91FE558FD4FB7
:101910008081806480838881DF91CF911F910F91B6
:10192000FF90EF90DF9008958130910551F6B9CF87
:1019300040E252E020E639E00E94F90B0895FC01F4
:101940002081203378F54181552747FD509588E85F
:1019500090E0841B950B880F991F880F991F6817BB
:10196000790784F04281552747FD509588E592E03C
:10197000841B950B880F991F880F991F681779078B
:101980000CF4CB014FB7F89430E0F901EE0FFF1FD4
:10199000E20FF31FE558FD4F0297880F991F9283BE
:1019A00081834FBF0895AF92BF92CF92DF92EF92A3
:1019B000FF920F931F93CF93DF93EC0182E060328D
:1019C00078070CF046C077FD04C0653B710524F430
:1019D00005C060E070E002C064EB70E000D00F92E0
:1019E000882777FD8095982F4981552747FD509589
:1019F00028E830E0241B350B220F331F220F331F42
:101A00005901CC24B7FCC094DC2C4A81552747FDF2
:101A1000509528E532E0241B350B220F331F220F8F
:101A2000331F442737FD4095542FEDB7FEB7218370
:101A300032834383548320E030E0A901B4EBEB2EE2
:101A4000F12C012D112D0E94991D0F900F900F90D8
:101A50000F90CE010E949F0CDF91CF911F910F91AB
:101A6000FF90EF90DF90CF90BF90AF90089585E307
:101A700061E00E943F1885E361E00E941B188CB56D
:101A800080618CBD8CB580648CBD84E361E00E9474
:101A90001B1883E361E00E941B180895CF93DF9326
:101AA0002091210330E0C4E1D0E02C9FC0012D9FA4
:101AB000900D3C9F900D11248E5D9C4F0E94B209A9
:101AC0008823E1F08091210390E0FC01EE0FFF1FDD
:101AD000EE0FFF1FEB5EFC4F8C9FD0018D9FB00D72
:101AE0009C9FB00D1124AE5DBC4F8D919D910D90CA
:101AF000BC91A02D80839183A283B383DF91CF918A
:101B00000895CF93DF93EC010E94E0169E014427D5
:101B100037FD4095542F620F731F841F951F6093EC
:101B20006003709361038093620390936303685D25
:101B30007F4F8F4F9F4F6093640370936503809333
:101B4000660390936703685D7F4F8F4F9F4F60934D
:101B500068037093690380936A0390936B03DF912A
:101B6000CF9108950F931F93DF93CF93CDB7DEB737
:101B7000EC970FB6F894DEBF0FBECDBF8E010F5F9E
:101B80001F4FC8016DE24BE228EC30E00E94D708FD
:101B9000A2E2B3E0F80184E101900D928150E1F7F7
:101BA0008E010B5E1F4FC8016CE24AE228EC30E068
:101BB0000E94D708A6E3B3E0F80184E101900D92FA
:101BC0008150E1F78E01075D1F4FC8016FE241E3CD
:101BD00028EC30E00E94D708AAE4B3E0F80184E1E1
:101BE00001900D928150E1F71092210381E090E085
:101BF00090935F0380935E038BE490E00E94810DDD
:101C0000EC960FB6F894DEBF0FBECDBFCF91DF913B
:101C10001F910F9108951092210381E090E090931D
:101C20005F0380935E038BE490E00E94810D089532
:101C30006F927F928F929F92AF92BF92DF92EF92BC
:101C4000FF920F931F93CF93DF9380915E03909148
:101C50005F03009709F454C000E613E055E1E52E58
:101C600053E0F52EC0E0D0E040E5842E43EC942E06
:101C7000A12CB12C34E1632E712CDC2E0E94E016D5
:101C80009B01AC01F80180819181A281B381281769
:101C900039074A075B0748F188589F4FAF4FBF4F3E
:101CA00080839183A283B383CC2349F48091210361
:101CB000823029F410925F0310925E0321C00E94CB
:101CC000AC09D0922103F70180829182A282B38273
:101CD000C69DC001C79D900DD69D900D11248E5DAF
:101CE0009C4F6EE47DE00E94350A21960C5F1F4FE9
:101CF00084E090E0E80EF91EC330D10509F0BDCFB5
:101D0000DF91CF911F910F91FF90EF90DF90BF90E7
:101D1000AF909F908F907F906F90089521E030E07A
:101D200080915E0390915F03009711F020E030E016
:101D3000C9010895CF92DF92EF92FF920F931F9304
:101D4000CF93DF9305E113E07FE0E72E73E0F72EFA
:101D5000C0E0D0E064E1C62ED12CF8012191319190
:101D6000419151918F01CC9DC001CD9D900DDC9D85
:101D7000900D11248E5D9C4FB9010E94790AF701E4
:101D8000819391937F012196C330D10531F78FE084
:101D900093E0DF91CF911F910F91FF90EF90DF9033
:101DA000CF900895CF93DF93C2E2D3E0CE010E949B
:101DB000D608CE0144960E94D608CE0188960E948D
:101DC000D608DF91CF9108950E94D0060E94BA07ED
:101DD00081E180934E0210926D0310928303109262
:101DE0009903EDE6F3E01292128280E4868380E1AB
:101DF00087830895FC01608380E4848380E1858388
:101E000008959093B4038093B3030895E091B303CE
:101E1000F091B403199508956F927F928F929F92DB
:101E2000AF92BF92CF92DF92EF92FF920F931F93E8
:101E3000DF93CF930F92CDB7DEB7C82E4B015A0177
:101E40000E94E0167B018C0188E893E1A0E0B0E0FD
:101E5000E80EF91E0A1F1B1FDD246624772420E0EC
:101E60003CC0D4016C916C2980EF0E94E9060BC044
:101E700088EC0E942C0787FF06C088EC60E80E946F
:101E8000E90620E011C00E94E0166E157F0580076C
:101E9000910770F32FEF30E031C088EF0E942C07DC
:101EA000282F2F70213049F429830E94E0162981C0
:101EB0006E157F058007910780F3243019F02E30CE
:101EC000B1F407C00894611C711C6A147B0429F4E6
:101ED00010C0D394BD2DB33079F029830E94E01651
:101EE00029816E157F058007910708F4BACF30E08D
:101EF00005C024E030E002C02EE030E0C9010F90C0
:101F0000CF91DF911F910F91FF90EF90DF90CF90D5
:101F1000BF90AF909F908F907F906F9008956F9239
:101F20007F928F929F92AF92BF92CF92DF92EF9269
:101F3000FF920F931F93CF93DF93FC017B013A0134
:101F400069015801DB0112968D909C90139780EEE9
:101F500060810E94E90688EEF70165810E94E9062A
:101F6000C0E0D0E080E0B701A5010E940C0F00970F
:101F700059F588EC0E942C0782FF29C080E30E945B
:101F80002C07682F082F10E088E0A6010E945E074A
:101F90006C0188EC64E00E94E906C00FD11F0815AF
:101FA000190518F0C615D705E8F288EF0E942C072E
:101FB00084FF06C080E2D70115968C93159709C05F
:101FC00080E1F701858305C0CFEFDFEF02C0CEEFE0
:101FD000DFEFCE01DF91CF911F910F91FF90EF9036
:101FE000DF90CF90BF90AF909F908F907F906F9039
:101FF00008950F931F93FB01DA01BC01685F7F4FC7
:10200000222319F001E010E002C000E01DE7AF015B
:102010009D010E948F0F1F910F9108952F923F9263
:102020004F925F926F927F928F929F92AF92BF92E8
:10203000CF92DF92EF92FF920F931F93DF93CF9394
:1020400000D0CDB7DEB7FC017B01A42E052F922E68
:10205000C32E80EE60810E94E9060E94E0162B01EB
:102060003C0188E893E1A0E0B0E0480E591E6A1EEA
:102070007B1ED70112962C901297222009F48DC056
:1020800088EE14966C910E94E9064A2D502F5B83CE
:102090004A838C2DC92CD82E20E0332468C00A81B5
:1020A0001B812016310608F48101802E80E1602F0B
:1020B000A6010E94010788E3602F0E94E906F7014C
:1020C0006081606280EF0E94E90688EC0E942C0724
:1020D00087FFFBCF88EC60E80E94E90688EF0E944A
:1020E0002C07282F2F70AA24BB2499242FC00894D2
:1020F000A11CB11CF0E0AF16FDE7BF0631F450C0E3
:102100009394292D233009F44EC088E360E00E94A7
:10211000E90680E1D6016C910E94E90688E3682D0A
:102120000E94E906F7016081606280EF0E94E90683
:1021300088EC0E942C0787FFFBCF88EC60E80E94A8
:10214000E90688EF0E942C07282F2F70222309F41C
:1021500043C029830E94E016298164157505860510
:102160009705D0F5243019F22E30A9F4C9CFAA80F2
:10217000BB80A114B10409F092CF88EF29830E949B
:102180002C07298185FF02C080E801C080E4D701C7
:1021900014968C93149730E008C02EEF30E005C001
:1021A00024E030E002C02EE030E0C9010F900F9033
:1021B0000F90CF91DF911F910F91FF90EF90DF90E3
:1021C000CF90BF90AF909F908F907F906F905F90D7
:1021D0004F903F902F900895EA81FB81E01BF10B17
:1021E000FB83EA83C00ED11EC2CFFB019A01BC0162
:1021F000625F7F4FAF010E940E1008950F931F93EF
:10220000E62FBC016E5F7F4FEE2349F0E0E2DC0178
:102210001796EC9300E01DE70E948F0F06C0E0E8E0
:10222000DC011696EC930E940E101F910F910895F9
:102230007F928F929F92AF92BF92CF92DF92EF9256
:10224000FF920F931F93DF93CF93CDB7DEB72A97FB
:102250000FB6F894DEBF0FBECDBF4C01762E80EED8
:10226000F40160812A8749870E94E90679824985BD
:102270004A83902F80E02A8530E0282B392B3C833D
:102280002B83FE82ED82D886CF8280E268E0AE01A9
:102290004F5F5F4F0E94010784010E5F1F4F80E177
:1022A000B80140E05DE70E940C0F8823E1F4F72CB1
:1022B000FF1CFF24FF1CA114B10431F0C4016F2DD9
:1022C000A60195010E94FE10FF2011F080EA01C0D6
:1022D00080E8B80140E05DE70E940C0F882331F0F0
:1022E0002DEF3FEF05C02FEF3FEF02C020E030E0C1
:1022F000C9012A960FB6F894DEBF0FBECDBFCF91AD
:10230000DF911F910F91FF90EF90DF90CF90BF90E2
:10231000AF909F908F907F9008952F923F924F9211
:102320005F926F927F928F929F92AF92BF92CF9265
:10233000DF92EF92FF920F931F93DF93CF930F9251
:10234000CDB7DEB72C01862E942E190138011982E3
:1023500060E846E0282D03E0E92CFF2431E0C32E9D
:10236000D12C5E010894A11CB11C0E94181197FD8C
:102370002FC0898190E02816390608F42982C98087
:10238000C20160E846E0282D03E0E92CFF24DD24AB
:1023900053010E94181197FD1EC0898190E0029799
:1023A00062E070E00E94851FD301F30180E090E0BD
:1023B00070E003C0019620812D933296861797070F
:1023C000CCF3660E771EF301108220E030E005C0EA
:1023D0002FEF3FEF02C02EEF3FEFC9010F90CF91DB
:1023E000DF911F910F91FF90EF90DF90CF90BF9002
:1023F000AF909F908F907F906F905F904F903F90A5
:102400002F900895AF92BF92CF92DF92EF92FF92FA
:102410000F935B0160E846E020E001E0EE24FF243A
:1024200052E1C52ED12C0E9418110F91FF90EF9010
:10243000DF90CF90BF90AF9008954F925F926F92D0
:102440007F928F929F92AF92BF92CF92DF92EF9244
:10245000FF920F931F93CF93DF932C01162F3A0116
:10246000490160E846E0212F02E0EE24FF2474E0F9
:10247000C72ED12C54010E9418110097D1F4F401F9
:10248000938180E02281C22FD0E0C82BD92B6C161B
:102490007D0608F4E301C20160E846E0212F02E076
:1024A000EE24FF246E0154010E941811009731F0B0
:1024B00003C0CFEFDFEF02C0CEEFDFEFCE01DF9141
:1024C000CF911F910F91FF90EF90DF90CF90BF9031
:1024D000AF909F908F907F906F905F904F900895F6
:1024E000AF92BF92CF92DF92EF92FF920F93262F7F
:1024F00060E045E000E0EE24FF24CC24DD24AA24A3
:10250000BB240E9418110F91FF90EF90DF90CF90A5
:10251000BF90AF900895EF92FF920F931F93DF93B8
:10252000CF93CDB7DEB762970FB6F894DEBF0FBE7C
:10253000CDBF0E94FE070E948907813029F08130BB
:1025400028F0843000F509C083E11BC080914E0261
:10255000807F8031C1F081E114C080914E02807F84
:10256000803189F40E94E01668537F4F8F4F9F4F50
:102570006093AF037093B0038093B1039093B20361
:1025800080E280934E0210914E02103409F440C054
:10259000113440F4103221F11033A1F1113109F05E
:1025A000C8C010C0103609F469C0103721F01035CA
:1025B00009F0BFC04CC080918303882309F477C021
:1025C00042E09DC080918303882331F082E893E04C
:1025D00061E070E00E94060F0E94E40E82E1A7C055
:1025E000E090AF03F090B0030091B1031091B203FB
:1025F0000E94E016E616F7060807190708F099C0CA
:1026000080E395C088EE61E00E94E90680E48FC017
:1026100088EE0E942C0780FD8CC088ED0E942C075C
:10262000682F686088ED0E94E90680E580934E027D
:102630000E94E0166C5E7F4F8F4F9F4F6093AF03F9
:102640007093B0038093B1039093B20372C088EC8F
:102650000E942C0786FF6DC0E090AF03F090B0039E
:102660000091B1031091B2030E94E016E616F7063E
:102670000807190708F05DC080E659C088E090E0BF
:1026800090937103809370038CE693E0BE016F5FBB
:102690007F4F0E940212882339F48885809370034B
:1026A0001092710380E743C01093AE033FC081E0F6
:1026B00080938203809383031092840380E4809349
:1026C000880380E1809389038CE693E061E00E94B7
:1026D0007012882341F482E893E060E070E00E9489
:1026E000060F80E909C082E893E062E070E00E9492
:1026F000060F1093AE0380EA80934E0241E0809172
:102700004E028037B1F450E026E130E0429FC00134
:10271000439F900D529F900D112484599C4F62E06D
:1027200070E00E94060F8EEF8093AE0380EA8093E4
:102730004E0262960FB6F894DEBF0FBECDBFCF91AA
:10274000DF911F910F91FF90EF900895AF92BF928C
:10275000CF92DF92EF92FF920F93262F60E049E035
:1027600000E0EE24FF24CC24DD24AA24BB240E9414
:1027700018110F91FF90EF90DF90CF90BF90AF9026
:102780000895EF92FF920F931F93DF93CF9300D0A2
:102790000F92CDB7DEB77C010E94A613C70160E09F
:1027A00040E024E030E08E010F5F1F4F0E948D114A
:1027B0002C81332727FD3095322F22274B81552737
:1027C00047FD5095242B352BF701358B248B90E05A
:1027D0000F900F900F900F90CF91DF911F910F915D
:1027E000FF90EF900895CB01B9018530910531F448
:1027F0008091BA039091BB030E94AA08089580912A
:102800004F0261E00E941B188091550261E00E9416
:102810001B188091570261E00E941B1880914F02A3
:1028200060E070E00E94BD158091550261E00E9459
:102830003F188091570260E00E943F18809151023A
:1028400061E00E941B188091590261E00E941B18F0
:1028500080915B0261E00E941B188091510260E050
:1028600070E00E94BD158091590261E00E943F18FE
:1028700080915B0260E00E943F188091530261E00A
:102880000E941B1880915D0261E00E941B188091DC
:10289000530260E070E00E94BD1580915D0261E02E
:1028A0000E943F18089588E160E00E941B1888E1AB
:1028B00061E00E943F180895CF93DF93C5EBD3E00A
:1028C000CE0162E070E00E94980CCE016AE570E0F3
:1028D0000E94D30CDF91CF91089587E161E00E94BF
:1028E0001B1887E160E00E943F1808951F93CF9363
:1028F000DF93EC01162F009791F4442341F080916F
:10290000550261E00E943F188091570225C08091D6
:10291000550260E00E943F188091570219C0813033
:10292000910591F4442341F08091590260E00E94A6
:102930003F1880915B020CC08091590261E00E94B7
:102940003F1880915B0208C0442321F080915D0212
:1029500061E003C080915D0260E00E943F18CC0FEF
:10296000DD1FC15BDD4F8881612F70E00E94BD15C6
:10297000DF91CF911F91089589EE95E040E051EEEF
:1029800060E070E00E945A1B0E94FF130E945C14DA
:102990000E946D140E94B20D0E9453140E943208CE
:1029A0009093BB038093BA030E94380184E392E0C2
:1029B00061E043EF53E10E946C019093B90380936F
:1029C000B8030895682F85EB93E070E00E94D30C64
:1029D00008958091BA039091BB030E946E08FC0198
:1029E000009719F18081823169F0833118F48131C7
:1029F000B1F405C0833169F0843189F40DC080E001
:102A000090E002C081E090E0618142810E947614F2
:102A100006C082E090E0F8CF81810E94E2148091AC
:102A2000BA039091BB030E947E080895DF93CF9371
:102A300000D00F92CDB7DEB7FC0181E3898380819E
:102A400091818F3F910511F008F08FEF8A83828189
:102A500093818F3F910511F008F08FEF8B83848174
:102A600095818F3F910511F008F08FEF8C83809155
:102A7000B8039091B90364E070E0AE014F5F5F4F1F
:102A80000E94CD060F900F900F900F90CF91DF9185
:102A900008950E94180E0E948E0E009731F00E9439
:102AA0009A0E0E9416150E940B0E0895DF93CF9385
:102AB0000F920F92CDB7DEB722E329831A820097D7
:102AC00011F481E08A8389EE95E06DE372E00E9463
:102AD000F81C89EE95E06A814AE050E00E94811D71
:102AE0008091B8039091B90362E070E0AE014F5F4E
:102AF0005F4F0E94CD060F900F90CF91DF91089508
:102B0000CF93DF9388E10E947718EC018091BE0398
:102B10009091BF03C817D90729F01092BD031092F6
:102B2000BC0316C08091BC039091BD038530910514
:102B30007CF48430910519F4CE010E9456158091E1
:102B4000BC039091BD0301969093BD038093BC0399
:102B5000D093BF03C093BE03DF91CF9108950E942D
:102B6000AB040E94E9140E9449150E948015089543
:102B700085EB93E00E94DF0B08951F93CF93DF93C3
:102B8000182FEB0161E00E941B18209709F4C5C0C3
:102B9000CF3FD10509F4C4C0E12FF0E0E254FE4F6D
:102BA000E491E93009F466C0EA30B0F4E430F1F1C0
:102BB000E53040F4E23059F1E33070F5E13009F0EE
:102BC000A9C020C0E73009F443C0E83008F048C08D
:102BD000E63009F09FC034C0ED3009F473C0EE3028
:102BE00038F4EB3009F45AC0EC3008F061C04CC046
:102BF000E03109F47BC0E13109F482C0EF3009F023
:102C000089C06AC084B5806884BDC7BD8DC084B5E5
:102C1000806284BDC8BD88C0809180008068809338
:102C20008000D0938900C09388007EC0809180008E
:102C3000806280938000D0938B00C0938A0074C020
:102C40008091B00080688093B000C093B3006CC0E6
:102C50008091B00080628093B000C093B40064C0E3
:102C600080919000806880939000D0939900C093E9
:102C700098005AC080919000806280939000D09319
:102C80009B00C0939A0050C0809190008860809310
:102C90009000D0939D00C0939C0046C08091A000FE
:102CA00080688093A000D093A900C093A8003CC086
:102CB0008091A00080628093A000D093AB00C0936D
:102CC000AA0032C08091A00088608093A000D093B9
:102CD000AD00C093AC0028C0809120018068809333
:102CE0002001D0932901C09328011EC080912001AA
:102CF000806280932001D0932B01C0932A0114C0DD
:102D000080912001886080932001D0932D01C09391
:102D10002C010AC0C038D1051CF4812F60E002C02C
:102D2000812F61E00E943F18DF91CF911F9108959C
:102D30001F920F920FB60F9211242F933F938F93F0
:102D40009F93AF93BF938091C4039091C503A091CB
:102D5000C603B091C7033091C8030196A11DB11DF0
:102D6000232F2D5F2D3720F02D570196A11DB11D6A
:102D70002093C8038093C4039093C503A093C60314
:102D8000B093C7038091C0039091C103A091C20387
:102D9000B091C3030196A11DB11D8093C003909310
:102DA000C103A093C203B093C303BF91AF919F919E
:102DB0008F913F912F910F900FBE0F901F901895FC
:102DC0008FB7F8942091C4033091C5034091C60396
:102DD0005091C7038FBFB901CA0108959FB7F894F6
:102DE0002091C0033091C1034091C2035091C303AD
:102DF00086B5A89B06C08F3F21F02F5F3F4F4F4FF6
:102E00005F4F9FBF542F432F322F2227280F311D92
:102E1000411D511D82E0220F331F441F551F8A950B
:102E2000D1F7B901CA010895EF92FF920F931F9352
:102E3000CF93DF937B018C010E94EE16EB010FC054
:102E40000E94EE166C1B7D0B83E0683E780738F01D
:102E50000894E108F10801091109C851DC4FE11497
:102E6000F1040105110561F7DF91CF911F910F91D9
:102E7000FF90EF900895019739F0880F991F880F00
:102E8000991F02970197F1F70895789484B58260AD
:102E900084BD84B5816084BD85B5826085BD85B5FE
:102EA000816085BDEEE6F0E0808181608083E1E8AD
:102EB000F0E01082808182608083808181608083E5
:102EC000E0E8F0E0808181608083E1EBF0E08081E8
:102ED00084608083E0EBF0E0808181608083E1E9C1
:102EE000F0E0808182608083808181608083E0E97E
:102EF000F0E0808181608083E1EAF0E0808182609F
:102F00008083808181608083E0EAF0E0808181605D
:102F10008083E1E2F1E08081826080838081816052
:102F20008083E0E2F1E0808181608083EAE7F0E085
:102F300080818460808380818260808380818160E1
:102F400080838081806880831092C10008958930D9
:102F500009F449C08A30A0F4843051F1853040F43E
:102F6000823079F1833000F5813009F063C026C0EA
:102F7000873079F1883098F5863009F05BC025C03C
:102F80008D3009F442C08E3028F48B30B1F18C3092
:102F9000C0F52DC0803109F442C0813109F445C02B
:102FA0008F3009F047C037C0809180008F7703C011
:102FB000809180008F7D80938000089584B58F7705
:102FC00002C084B58F7D84BD08958091B0008F7755
:102FD00003C08091B0008F7D8093B00008958091F0
:102FE00090008F7707C0809190008F7D03C0809103
:102FF0009000877F8093900008958091A0008F7744
:1030000007C08091A0008F7D03C08091A000877FC2
:103010008093A0000895809120018F7703C0809154
:1030200020018F7D80932001089580912001877F6A
:1030300080932001089590E0FC01E858FE4F249110
:10304000FC01EE5CFE4FE491EE23C1F0F0E0EE0FE8
:10305000FF1FEC51FF4F85919491DC01662341F4F1
:103060009FB7F8948C91209582238C939FBF0895ED
:103070009FB7F8948C91822B8C939FBF08950F93E8
:103080001F93DF93CF930F92CDB7DEB7282F30E099
:10309000F901E254FE4F8491F901E858FE4F149172
:1030A0002E5C3E4FF90104910023D9F0882321F0D2
:1030B00069830E94A7176981E02FF0E0EE0FFF1FE0
:1030C000E250FF4F85919491DC019FB7F8946623FD
:1030D00021F48C911095812302C08C91812B8C93CB
:1030E0009FBF0F90CF91DF911F910F9108950F9384
:1030F0001F93282F30E0F901E254FE4F8491F9012B
:10310000E858FE4F04912E5C3E4FF90114911123B3
:1031100091F0882311F00E94A717E12FF0E0EE0F45
:10312000FF1FE85EFE4F85919491DC018C91802316
:1031300021E030E011F420E030E0C9011F910F914F
:103140000895FC0184859585FC01E05CFF4F20819A
:1031500031818E5B9F4FFC0180819181281B390B4F
:103160002F733070C9010895FC0184859585FC0199
:10317000E05CFF4F40815181FC01EE5BFF4F2081FD
:1031800031814217530741F00190F081E02DE80FA3
:10319000F91F208130E002C02FEF3FEFC9010895F1
:1031A000FC0184859585FC01E05CFF4F40815181E5
:1031B000FC01EE5BFF4F208131814217530771F014
:1031C000A081B181A80FB91F2C91808191810196B6
:1031D0008F7390709183808330E002C02FEF3FEFB8
:1031E000C9010895DC011E968D919C911F97FC01E9
:1031F000E05CFF4F8E5B9F4F40815181DC012D9140
:103200003C91119742175307B9F708951F93FC019A
:10321000162F26853785D901A05CBF4F8D919C91D3
:10322000019660E470E00E94851FD901AE5BBF4F3C
:103230004D915C91119784179507D1F3D901A05C4A
:10324000BF4F0D90BC91A02DA20FB31F1C93A6855C
:10325000B785A05CBF4F11969C938E93A689B789C2
:103260002C9181E090E0058C02C0880F991F0A9490
:10327000E2F7282B2C9381E090E01F910895FB0149
:10328000E05CFF4F208131812F5F3F4F2F73307003
:10329000DB01AE5BBF4F4D915C9111972417350751
:1032A00039F0A081B181A60FB71F8C9331832083A1
:1032B000089508951F920F920FB60F920BB60F92BA
:1032C00011242F933F934F935F936F937F938F932B
:1032D0009F93AF93BF93EF93FF938091C60069ECE8
:1032E00073E00E943F19FF91EF91BF91AF919F91C1
:1032F0008F917F916F915F914F913F912F910F909F
:103300000BBE0F900FBE0F901F90189508951F923F
:103310000F920FB60F920BB60F9211242F933F937B
:103320004F935F936F937F938F939F93AF93BF93CD
:10333000EF93FF938091CE0061E574E00E943F1906
:10334000FF91EF91BF91AF919F918F917F916F917D
:103350005F914F913F912F910F900BBE0F900FBE39
:103360000F901F90189508951F920F920FB60F920D
:103370000BB60F9211242F933F934F935F936F934C
:103380007F938F939F93AF93BF93EF93FF9380911E
:10339000D60069ED74E00E943F19FF91EF91BF9153
:1033A000AF919F918F917F916F915F914F913F91DD
:1033B0002F910F900BBE0F900FBE0F901F9018957E
:1033C00008951F920F920FB60F920BB60F92112411
:1033D0002F933F934F935F936F937F938F939F931D
:1033E000AF93BF93EF93FF938091360161E675E051
:1033F0000E943F19FF91EF91BF91AF919F918F91E3
:103400007F916F915F914F913F912F910F900BBEE4
:103410000F900FBE0F901F90189589EE95E00E94B7
:10342000A118009711F00E94591988E096E00E94B7
:10343000A118009711F00E94861987E296E00E9479
:10344000A118009711F00E94B31986E496E00E943B
:10345000A118009711F00E94E01908951F920F9291
:103460000FB60F920BB60F9211242F933F935F93D9
:103470006F937F938F939F93AF93BF93EF93FF933C
:1034800020914D0430914E0480914F04909150044E
:103490002817390731F48091C1008F7D8093C100D6
:1034A00016C0E0914F04F0915004E35FFB4F208180
:1034B00080914F0490915004019660E470E00E9466
:1034C000851F9093500480934F042093C600FF9172
:1034D000EF91BF91AF919F918F917F916F915F918C
:1034E0003F912F910F900BBE0F900FBE0F901F902A
:1034F00018951F920F920FB60F920BB60F921124D0
:103500002F933F935F936F937F938F939F93AF938B
:10351000BF93EF93FF932091D5043091D60480910F
:10352000D7049091D8042817390731F48091C90045
:103530008F7D8093C90016C0E091D704F091D80424
:10354000EB56FB4F20818091D7049091D8040196CF
:1035500060E470E00E94851F9093D8048093D704A4
:103560002093CE00FF91EF91BF91AF919F918F91EA
:103570007F916F915F913F912F910F900BBE0F90B4
:103580000FBE0F901F9018951F920F920FB60F92BB
:103590000BB60F9211242F933F935F936F937F93FA
:1035A0008F939F93AF93BF93EF93FF9320915D050C
:1035B00030915E0580915F0590916005281739076D
:1035C00031F48091D1008F7D8093D10016C0E091BD
:1035D0005F05F0916005E35EFA4F208180915F0501
:1035E00090916005019660E470E00E94851F9093C1
:1035F000600580935F052093D600FF91EF91BF9106
:10360000AF919F918F917F916F915F913F912F919A
:103610000F900BBE0F900FBE0F901F9018951F922A
:103620000F920FB60F920BB60F9211242F933F9368
:103630005F936F937F938F939F93AF93BF93EF931A
:10364000FF932091E5053091E6058091E705909183
:10365000E8052817390731F4809131018F7D809377
:10366000310116C0E091E705F091E805EB55FA4FFE
:1036700020818091E7059091E805019660E470E073
:103680000E94851F9093E8058093E70520933601FB
:10369000FF91EF91BF91AF919F918F917F916F912A
:1036A0005F913F912F910F900BBE0F900FBE0F9027
:1036B0001F901895DF92EF92FF920F931F93CF9375
:1036C000DF93EC017A018B01DD24D394403081EE4D
:1036D000580780E0680780E0780749F4DD24EC892A
:1036E000FD89108260E874E88EE190E00FC0EC89FB
:1036F000FD8981E090E00E8C02C0880F991F0A942A
:10370000E2F7808360E079E08DE390E0A801970123
:103710000E94981F21503040404050405695479598
:103720003795279580E12030380710F0DD20B1F67D
:10373000E889F9893083EA89FB892083EE89FF894A
:10374000408181E090E09C010A8C02C0220F331F6F
:103750000A94E2F7422B4083EE89FF8940819C0165
:103760000B8C02C0220F331F0A94E2F7422B4083D6
:10377000EE89FF8940819C010C8C02C0220F331F0F
:103780000A94E2F7422B4083EE89FF8920810D8C59
:1037900002C0880F991F0A94E2F7809582238083E4
:1037A000DF91CF911F910F91FF90EF90DF900895DF
:1037B0001F93CF93DF931092EC051092EB0588EEE8
:1037C00093E0A0E0B0E08093ED059093EE05A09328
:1037D000EF05B093F005EBEEF5E023E632E032932F
:1037E000229349EC53E0558744874DE054E05787D6
:1037F000468745EC50E0518B408B44EC50E0538BB6
:10380000428B40EC50E0558B448B41EC50E0578BA1
:10381000468B46EC50E0518F408F14E0128F73E0DE
:10382000738F67E0648F55E0558F41E0468F1092AB
:103830000B0610920A0680930C0690930D06A09337
:103840000E06B0930F06EAE0F6E032932293C1E54C
:10385000D4E0D587C487C5E9D4E0D787C687CDEC47
:10386000D0E0D18BC08BCCECD0E0D38BC28BC8EC3A
:10387000D0E0D58BC48BC9ECD0E0D78BC68BCEEC17
:10388000D0E0D18FC08F128F738F648F558F468F8A
:1038900010922A061092290680932B0690932C06EC
:1038A000A0932D06B0932E06E9E2F6E03293229320
:1038B000C9EDD4E0D587C487CDE1D5E0D787C687E9
:1038C000C5EDD0E0D18BC08BC4EDD0E0D38BC28BE3
:1038D000C0EDD0E0D58BC48BC1EDD0E0D78BC68BCB
:1038E000C6EDD0E0D18FC08F128F738F648F558F4C
:1038F000468F109249061092480680934A0690938C
:103900004B06A0934C06B0934D06E8E4F6E03293E4
:10391000229381E695E09587848785EA95E09787ED
:10392000868785E391E0918B808B84E391E0938B94
:10393000828B80E391E0958B848B81E391E0978B80
:10394000868B86E391E0918F808F128F738F648FC7
:10395000558F468FDF91CF911F910895CF93DF93BD
:103960000E9445170E94BC14CDE0DAE10E94AF1519
:103970002097E1F30E940D1AF9CFCF92DF92EF92D8
:10398000FF920F931F93CF93DF936C017B018A010A
:10399000C0E0D0E00FC0D7016D917D01D601ED915F
:1039A000FC910190F081E02DC6011995C80FD91F37
:1039B000015010400115110571F7CE01DF91CF9133
:1039C0001F910F91FF90EF90DF90CF900895DB0152
:1039D0000D900020E9F7AD0141505040461B570BB8
:1039E000DC01ED91FC910280F381E02D19950895A1
:1039F0000E94E71C0895DC01ED91FC910190F0819B
:103A0000E02D199508950F931F93CF93DF93EC0149
:103A10006DE00E94FB1C8C01CE016AE00E94FB1C41
:103A2000080F191FC801DF91CF911F910F910895C1
:103A30008F929F92AF92BF92CF92DF92EF92FF92BE
:103A40000F931F93DF93CF93CDB7DEB7A1970FB638
:103A5000F894DEBF0FBECDBF6C01042FE52FCB0164
:103A6000122F19A2223008F41AE021E2E22EF12CE2
:103A7000EC0EFD1E812E9924AA24BB2403C0022F24
:103A8000E32FCA01602F7E2FA50194010E94981F89
:103A9000129F802D1124081B0894E108F1080A30B8
:103AA00014F4005D01C0095CF701008321153105A4
:103AB0004105510521F7C601B7010E94E71CA196F7
:103AC0000FB6F894DEBF0FBECDBFCF91DF911F912F
:103AD0000F91FF90EF90DF90CF90BF90AF909F90AD
:103AE0008F9008952115310549F4DC01ED91FC9189
:103AF0000190F081E02D642F199508950E94181D02
:103B000008950F931F93CF93DF93EC019A01462FF3
:103B100050E060E070E00E94721D8C01CE010E94B6
:103B2000031D080F191FC801DF91CF911F910F913D
:103B300008952F923F924F925F926F927F928F9251
:103B40009F92AF92BF92CF92DF92EF92FF920F932C
:103B50001F93DF93CF93CDB7DEB73B014C01190123
:103B60002A016E897F89888D998D6A197B098C0954
:103B70009D09621A730A840A950AA40193010E949E
:103B8000461FE218F30804091509A80197010E94CD
:103B9000BA1F2A0D3B1D4C1D5D1DB901CA01CF91F5
:103BA000DF911F910F91FF90EF90DF90CF90BF902A
:103BB000AF909F908F907F906F905F904F903F90CD
:103BC0002F900895CF93DF938230910510F482E017
:103BD00090E0E0916706F091680640E050E020E058
:103BE00030E026C06081718168177907E0F06817BE
:103BF000790781F4828193812115310531F0D90152
:103C000013969C938E9312972BC090936806809383
:103C1000670626C04115510519F06417750718F499
:103C2000AB01E901DF019F0172816381E72FF62F6C
:103C30003097C1F64115510501F1481B590B44302D
:103C4000510580F412968D919C911397209719F04D
:103C50009B838A8304C09093680680936706FD0166
:103C6000329646C0FD01E40FF51F819391934250B7
:103C7000504011965C934E933BC020916506309165
:103C800066062115310541F4209148023091490220
:103C9000309366062093650620914A0230914B02CC
:103CA0002115310541F42DB73EB7409146025091A0
:103CB0004702241B350BE0916506F0916606E2177A
:103CC000F307A0F42E1B3F0B2817390778F0AC013F
:103CD0004E5F5F4F2417350748F04E0F5F1F50931C
:103CE0006606409365068193919302C0E0E0F0E0A0
:103CF000CF01DF91CF910895CF93DF93009709F41F
:103D000091C0FC0132971382128260916706709114
:103D100068066115710581F420813181280F391FF2
:103D200080916506909166068217930799F5F09346
:103D30006606E093650676C0DB0180E090E002C095
:103D4000CD01D901AE17BF0748F412962D913C91D1
:103D5000139721153105A1F7CD0121C0B383A283AB
:103D6000EF01499159919E01240F351FA217B30706
:103D700079F42D913C911197240F351F2E5F3F4F01
:103D80003183208312962D913C91139733832283A4
:103D9000009729F4F0936806E093670643C0DC01BE
:103DA0001396FC93EE9312974D915D91A40FB51F5E
:103DB000EA17FB0769F420813181240F351F2E5F3C
:103DC0003F4FEC0139832883228133813B832A834F
:103DD000E0E0F0E002C0FB01BC01DB0112968D9136
:103DE0009C9113970097B9F79B012E5F3F4F8D91E0
:103DF0009C911197820F931F409165065091660622
:103E00004817590779F4309729F4109268061092F0
:103E1000670602C013821282225030403093660639
:103E200020936506DF91CF910895F8940C94D91FE3
:103E3000EF92FF920F931F93DF93CF930F920F9206
:103E4000CDB7DEB7BC01DC010D900020E9F7CD0154
:103E5000861B970B69837A830E94E21D8C0169811E
:103E60007A81009711F00E943F1FC8010F900F90B8
:103E7000CF91DF911F910F91FF90EF900895FB017B
:103E8000DC0101900D920020E1F70895629FD001BE
:103E9000739FF001829FE00DF11D649FE00DF11D05
:103EA000929FF00D839FF00D749FF00D659FF00DB4
:103EB0009927729FB00DE11DF91F639FB00DE11DA1
:103EC000F91FBD01CF0111240895991B79E004C0A9
:103ED000991F961708F0961B881F7A95C9F7809549
:103EE0000895AA1BBB1B51E107C0AA1FBB1FA61741
:103EF000B70710F0A61BB70B881F991F5A95A9F793
:103F000080959095BC01CD01089597FB092E072659
:103F10000AD077FD04D0E5DF06D000201AF47095B2
:103F200061957F4F0895F6F7909581959F4F08957D
:103F3000A1E21A2EAA1BBB1BFD010DC0AA1FBB1FAD
:103F4000EE1FFF1FA217B307E407F50720F0A21B1F
:103F5000B30BE40BF50B661F771F881F991F1A948C
:103F600069F760957095809590959B01AC01BD01B6
:103F7000CF01089597FB092E05260ED057FD04D0DA
:103F8000D7DF0AD0001C38F4509540953095219524
:103F90003F4F4F4F5F4F0895F6F79095809570957E
:103FA00061957F4F8F4F9F4F08950790F691E02DB9
:063FB0001994F894FFCF04
:103FB600686F73743A3A6D6963726F6272696467A7
:103FC60065004572726F723A204F53434F4B495208
:103FD60051206661696C656420746F206173736536
:103FE60072740A007463703A343536370042757459
:103FF600746F6E3A20002000690600000100110966
:10400600000A000B00230025001F002100220000EB
:104016000000000619BD1CA118D018B418F218002B
:00000001FF
