:100000000C9405010C9436010C9436010C943601C5
:100010000C9436010C9436010C9436010C94360184
:100020000C9436010C9436010C9436010C94360174
:100030000C9436010C942C080C9436010C94360167
:100040000C9436010C9420090C9436010C94360162
:100050000C9436010C9436010C9436010C94D61194
:100060000C9436010C9464140C9438150C943601DD
:100070000C9436010C9436010C9436010C94360124
:100080000C944E090C9436010C9436010C943601F4
:100090000C9491140C9483150C9436010C94360135
:1000A0000C9436010C9436010C947C090C943601A6
:1000B0000C9436010C9436010C9436010C94AA0968
:1000C0000C9436010C9436010C9436010C94BE1439
:1000D0000C94CE150C9436010C94EB140C94191658
:1000E0000C94360100002100240027002A002D0076
:1000F0003000330001010000040107010A01000083
:100100002200250028002B002E00310034000201BF
:100110000000050108010B0100002000230026005B
:1001200029002C002F00320000010000030106010D
:10013000090105050505070508080808020202026D
:100140000A0A080804040404010101010101010173
:100150000303030303030303040707070C0C0C0C3E
:100160000C0C0C0C02020202060606060606060627
:100170000B0B0B0B0B0B0B0B0102102020080810B4
:100180002040102040800201020108040201010207
:1001900004081020408080402010080402018004E0
:1001A000020180402010080402010804020101023B
:1001B0000408102040800102040810204080000044
:1001C000090A02080B0C0D070603040100000000D9
:1001D000000000000000000000000000000000001F
:1001E0000000000000000000000011100F000000DF
:1001F00000000000000000000000000000000000FF
:1002000000000000580BF610E21611241FBECFEFBD
:10021000D1E2DEBFCDBF00E00CBF12E0A0E0B2E053
:10022000EEE8F4E300E00BBF02C007900D92A236A7
:10023000B107D9F716E0A2E6B2E001C01D92A232E2
:10024000B107E1F712E0CAE0D2E000E006C0229771
:100250000109FE010BBF0E94411AC430D10780E0A2
:100260000807A9F70E94B8170C9481190C94000094
:1002700010926502109264021092660280E496E089
:100280000E94830B0E94660B0895CF92DF92EF923B
:10029000FF920F931F93CF93DF93EC018B017A01B1
:1002A0006901E0916202F0916302309709F01995BB
:1002B000209749F0ED89FE89309729F0CE01B801E9
:1002C000A70196011995DF91CF911F910F91FF9092
:1002D000EF90DF90CF900895DF92EF92FF920F930F
:1002E0001F93CF93DF93EC01D62E7A0189E190E042
:1002F0000E944E18082F192F01151105B9F1CE01D2
:100300000E948419F80191838083009731F4C80119
:100310000E94E81800E010E029C0209143023091CB
:100320004402C901AA2797FDA095BA2FF80182833C
:100330009383A483B5832F5F3F4F30934402209370
:10034000430281E090E0938B828B128613861486A1
:100350001586D48AF68AE58A8091670290916802B0
:10036000908F878B1093680200936702C801DF911A
:10037000CF911F910F91FF90EF90DF900895CF9252
:10038000DF92EF92FF920F931F93DF93CF93CDB73E
:10039000DEB768970FB6F894DEBF0FBECDBF4983B6
:1003A0005A836B837C830D831E832F833887C98692
:1003B000DA86EB86FC861D861E861F86188A198AB9
:1003C0001A8A1B8A1C8A40955095609570954D8BB2
:1003D0005E8B6F8B788F68E170E0AE014F5F5F4F8F
:1003E0000E94770D68960FB6F894DEBF0FBECDBFA2
:1003F000CF91DF911F910F91FF90EF90DF90CF9001
:1004000008952F923F924F925F926F927F928F92B8
:100410009F92AF92BF92CF92DF92EF92FF920F9393
:100420001F93DF93CF93CDB7DEB76C970FB6F894D9
:10043000DEBF0FBECDBF1C012A013B01098F1A8F01
:100440002B8F3C8F1AA90BA9282D392D4A2D5B2DF6
:10045000C801E92FF82F80E090E0DC0109C061912C
:10046000860F911DA11DB11D2150304040405040CC
:10047000211531054105510591F749825A826B8258
:100480007C82298D3A8D4B8D5C8D2D833E834F83ED
:100490005887C986DA86EB86FC868D869E86AF866F
:1004A000B88A898B9A8BAB8BBC8B409450946094A8
:1004B00070944D8A5E8A6F8A788EC10168E170E01F
:1004C000AE014F5F5F4F0E94770D882331F4C10169
:1004D000B401412F502F0E94770D90E06C960FB61B
:1004E000F894DEBF0FBECDBFCF91DF911F910F916A
:1004F000FF90EF90DF90CF90BF90AF909F908F9044
:100500007F906F905F904F903F902F9008956F92E3
:100510007F928F929F92AF92BF92CF92DF92EF9293
:10052000FF920F931F937A2C6B2CEA2DFB2DDF018A
:100530000D900020E9F70F920F92AE1BBF0B4D01FB
:10054000AA24BB24EDB7FEB7718262820E94010229
:100550000F900F901F910F91FF90EF90DF90CF9031
:10056000BF90AF909F908F907F906F900895EF9283
:10057000FF920F931F93DF93CF93CDB7DEB7C05495
:10058000D0400FB6F894DEBF0FBECDBF7C01262F42
:10059000809164029091650260E470E08E010F5FCB
:1005A0001F4FA8010E947B0CAC0197FD0DC02E2DA2
:1005B0003F2DD901F80188E101900D928150E1F7BA
:1005C00081E04831510509F080E0C05CDF4F0FB693
:1005D000F894DEBF0FBECDBFCF91DF911F910F9179
:1005E000FF90EF9008958F929F92AF92BF92CF921B
:1005F000DF92EF92FF920F931F93CF93DF93C091FF
:100600006702D091680283E0882E912C3BC00E9443
:100610001E129B01AC018A859B85AC85BD856A89CC
:100620007B896130710559F579018A01E81AF90A67
:100630000A0B1B0BC801B701693E03E0700700E01D
:10064000800700E09007D8F00A811B812C813D8152
:10065000A880B98080916402909165024FE450E5D2
:1006600065E47EE4CC24DD2476010E9487020E94AA
:100670001E126A877B878C879D879B8A8A8A0F8850
:10068000D88DC02D209719F6DF91CF911F910F9132
:10069000FF90EF90DF90CF90BF90AF909F908F90A2
:1006A0000895CF93DF93EC018A899B89833091056C
:1006B000B1F482E090E09B8B8A8BFB018481958171
:1006C000A681B7818E839F83A887B987CE0162E018
:1006D00070E040E050E020E030E00E9445018A896F
:1006E0009B898530910521F482E090E09B8B8A8B79
:1006F000DF91CF910895CF93DF93EC018A899B8995
:100700008330910521F4CE0164E070E003C0CE0196
:1007100063E070E040E050E020E030E00E944501FE
:100720008C89882329F081E090E09B8B8A8B02C022
:100730001B8A1A8ADF91CF9108952F923F924F9290
:100740005F926F927F928F929F92AF92BF92CF9261
:10075000DF92EF92FF920F931F93DF93CF93CDB76A
:10076000DEB7C454D0400FB6F894DEBF0FBECDBF85
:100770005C016B01FB01E484F58406851785FC01AF
:100780000288F389E02D2396FFAFEEAF239784E034
:1007900090E0F501938B828B118A108AF786E686AA
:1007A0002E010894411C511C3AC037014801F1E464
:1007B000EF16F1040105110528F090E4692E712C63
:1007C000812C912C25967FAE6EAE25978091640288
:1007D00090916502B301A20120E00E947B0C1C01F4
:1007E0002FEF8F3F920701F1F501808991892596BE
:1007F0002EAD3FAD2597820F931F918B808BC50146
:1008000065E070E0A30192010E944501C101AA27A1
:1008100097FDA095BA2FE81AF90A0A0B1B0BE114F1
:10082000F1040105110509F6F601008511852285FF
:100830003385C480D580E680F780809164029091F2
:1008400065024FE45BE461E479E50E94BF01239611
:100850002EAD3FAD2397F501338B228BCC5BDF4F61
:100860000FB6F894DEBF0FBECDBFCF91DF911F91C1
:100870000F91FF90EF90DF90CF90BF90AF909F903F
:100880008F907F906F905F904F903F902F90089542
:10089000CF93DF93C0916702D09168020BC08A8921
:1008A0009B898230910518F0CE010E947B030F884E
:1008B000D88DC02D209799F7DF91CF910895CF92D1
:1008C000DF92EF92FF920F931F93DF93CF93CDB7F9
:1008D000DEB7C050D1400FB6F894DEBF0FBECDBF1B
:1008E000FC01E484F58406851785F1E0EF16F1E05C
:1008F000FF06F0E00F07F0E01F0728F0E12C21E0F1
:10090000F22E012D112D8091640290916502B701A4
:100910006E010894C11CD11CA60120E00E947B0C32
:1009200081E08093660280E090E060E070E0A701E3
:1009300096010E944501C050DF4F0FB6F894DEBF0C
:100940000FBECDBFCF91DF911F910F91FF90EF9020
:10095000DF90CF900895AF92BF92CF92DF92EF9247
:10096000FF920F931F93DF93CF93CDB7DEB76897B6
:100970000FB6F894DEBF0FBECDBF0E940D0F809161
:10098000640290916502009709F488C02091660284
:100990002223C9F443E45EE468E57EE400E010E06D
:1009A00020E031E0C12CF0E1DF2EE12CF12CE0E081
:1009B000AE2EE2E0BE2E0E94870264EF71E080E07E
:1009C00090E00E94521280916602882311F00E94EA
:1009D000F3028E010F5F1F4FC80161E00E94B70252
:1009E000882309F45BC089819A81AB81BC818334FF
:1009F0002EE4920728E5A2072EE4B20719F4C801F5
:100A00000E945F0400916702109168027E010894C1
:100A1000E11CF11C3FC0F801828993890097B9F16C
:100A2000228133814481558189859A85AB85BC8536
:100A3000281739074A075B0751F589819A81AB81ED
:100A4000BC818735F2E59F07F4E5AF07F5E4BF0702
:100A5000D1F08F342BE4920721E4A20729E5B207F5
:100A600049F08334ECE49E07E3E5AE07E5E4BE0716
:100A700071F405C0C801B7010E94510308C0C80144
:100A80000E947B0304C0C801B7010E949D03F801C6
:100A90000789108D0115110509F0BDCF68960FB6B5
:100AA000F894DEBF0FBECDBFCF91DF911F910F91A4
:100AB000FF90EF90DF90CF90BF90AF900895FC0132
:100AC0008481823051F48781813039F485818F3F70
:100AD00031F481E09681923419F080E0089580E04D
:100AE00008952F923F924F925F926F927F928F92D2
:100AF0009F92AF92BF92CF92DF92EF92FF920F93AD
:100B00001F93DF93CF93CDB7DEB7C250D1400FB65E
:100B1000F894DEBF0FBECDBF6A0140E051E07E0118
:100B20000894E11CF11C97010E949F0E4C0197FD57
:100B30005AC0AA24BB246624772400E010E020E0F9
:100B40001701A2E04A2E512C4C0E5D1E47C07101C8
:100B5000E00EF11EF7013081F201E00FF11F8081FC
:100B6000843031F0853041F18230B1F5370134C045
:100B70005701C701CF5FDE4F2883C150D140CE5F00
:100B8000DE4F3883C250D1400E945F05CF5FDE4FF9
:100B90002881C150D140CE5FDE4F3881C250D14054
:100BA0008823D1F0F3018581F6018183F7018281E9
:100BB000F601828321E010C0F5019281F601828165
:100BC000981751F4F701828187FF04C08F77F601EF
:100BD000838302C0F6018483030F111D08151905D4
:100BE0000CF4B5CF01C020E0822FCE5FDE4F0FB6F0
:100BF000F894DEBF0FBECDBFCF91DF911F910F9153
:100C0000FF90EF90DF90CF90BF90AF909F908F902C
:100C10007F906F905F904F903F902F900895DF925C
:100C2000EF92FF920F931F93CF93DF93EC018B0111
:100C3000FB01618170E00E944310CE010896F8012B
:100C400063810E947C0B82E0D82ED986B0E4EB2E23
:100C5000F12CFB86EA86CE010E96F80164810E9493
:100C60007C0BDF86F98AE88AD0936502C093640220
:100C7000DF91CF911F910F91FF90EF90DF9008953A
:100C8000EF92FF920F931F93DF93CF9300D00F92B9
:100C90000F92CDB7DEB77C016115710521F061308F
:100CA0007105F9F40FC060E070E08E010F5F1F4F17
:100CB000A8010E9471058823A1F0C701B8010E9414
:100CC0000F060FC08091640290916502E816F90644
:100CD00041F40E944804109265021092640210923E
:100CE00066020F900F900F900F900F90CF91DF91B1
:100CF0001F910F91FF90EF9008950E94410B85E3A3
:100D000061E00E944F136E98E4E0F1E08081877FFC
:100D1000808380818460808385E361E00E94731317
:100D2000E5E0F1E080818460808308950F931F9354
:100D3000082F162F85E360E00E94731302600EBD3A
:100D40000DB407FEFDCF1EBD0DB407FEFDCF85E33C
:100D500061E00E9473131F910F910895EF92FF922B
:100D60000F931F93CF93DF93082F162FEA0185E38C
:100D700060E00E94731302600EBD0DB407FEFDCF4C
:100D8000FE01812F06C091919EBD0DB407FEFDCFDF
:100D900081508823C1F785E361E00E947313C10F7E
:100DA000D11DCE01DF91CF911F910F91FF90EF9058
:100DB00008951F93182F85E360E00E9473131EBDF2
:100DC0000DB407FEFDCF1EBC0DB407FEFDCF85E3BD
:100DD00061E00E9473138EB51F9108951F9388E7F9
:100DE00060E20E94960688E760E00E9496066AE04C
:100DF00070E080E090E00E94521210E002C01150BA
:100E000039F088E60E94D90680FFF9CF81E001C061
:100E100080E01F910895EF92FF920F931F93CF935D
:100E2000DF93082F162FEA0185E360E00E94731319
:100E30000EBD0DB407FEFDCF812FFE0107C01EBC05
:100E40000DB407FEFDCF9EB5919381508823B9F76D
:100E500085E361E00E947313C10FD11DCE01DF91C4
:100E6000CF911F910F91FF90EF90089580916902AB
:100E7000089588EF0E94D906807C803481F0813407
:100E800018F4882309F10895803819F0803CF1F4B2
:100E900017C088ED0E94D90681FD06C00BC088ED01
:100EA0000E94D90681FD06C088ED6BEC0E94960673
:100EB00083E007C088ED69EC0E94960682E001C0DD
:100EC00081E080936902089510926902089588E88C
:100ED0006AE10E9496060E94EE06882331F482EAB7
:100EE00095E062E172E00E94021888ED61ED0E94D7
:100EF000960680ED60E60E94960688EE64E00E9409
:100F0000960688EE0E94D90682FFFBCF0E94390721
:100F100088EC60E20E94960680E861E00E949606F6
:100F200008951F9388EC0E94D906282F86FF02C0DF
:100F300010E401C010E025FF03C00E9439071062D1
:100F400088EC612F0E949606812F1F91089580EBF7
:100F50000E94D90608951F93769904C00E949107B4
:100F6000182F01C010E08091050183FD02C00E948E
:100F7000A707812F1F910895FC01DC018FEF90E0FE
:100F800021E030E02D933D930197E1F783E090E07D
:100F900093A382A395A384A397A386A391A780A7D5
:100FA00025E030E033A722A7DF01AE59BF4F1196ED
:100FB0009C938E93EC59FF4F918380830895EF9219
:100FC000FF921F93CF93DF938FEF92E00E944E1812
:100FD000192FE82EE7017E01F92EF701E150FF4FAE
:100FE00011821082C7018F5F9E4F0E94BC078E2D19
:100FF000912FDF91CF911F91FF90EF9008950F9364
:101000001F93CF93DF93FC01E150FF4FA081B1818B
:10101000FA01EA0FFB1FEF3FF10509F0A4F4EB0121
:10102000A80FB91F20E030E004C069916D932F5FD5
:101030003F4F24173507CCF381509F4FDC011196A9
:10104000FC93EE9302C040E050E0CA01DF91CF91E3
:101050001F910F91089508951F920F920FB60F924E
:101060000BB60F9211242F933F934F935F936F937F
:101070007F938F939F93AF93BF93EF93FF93E091F1
:101080006A02F0916B02309709F01995FF91EF9188
:10109000BF91AF919F918F917F916F915F914F9190
:1010A0003F912F910F900BBE0F900FBE0F901F908E
:1010B0001895EF92FF920F931F93CF93DF93EB015D
:1010C0007A018C01DC01A350BD4F8C9187FF03C0D6
:1010D0001982188237C0C801880F991F800F911F8D
:1010E000880F991F880F991F2C91332727FD309562
:1010F000280F391F40916C0250E02417350714F572
:101100002C91332727FD3095280F391FF901EE0F59
:10111000FF1FE20FF31FE359FD4F208126FF12C08E
:101120002C91332727FD3095280F391FF901EE0F39
:10113000FF1FE20FF31FE359FD4F80818F7360E0C3
:101140000E947313F801E350FD4F80818F5F80830D
:10115000C801880F991F800F911F880F991F880F52
:10116000991F2081332727FD3095280F391F409183
:101170006C0250E0241735070CF053C020812C304E
:101180000CF04FC0488159812081332727FD3095CD
:10119000280F391FD901AA0FBB1FA20FB31FA359D4
:1011A000BD4F11962D913C911297420F531FD701BD
:1011B00011965C934E932081332727FD3095280F9D
:1011C000391FD901AA0FBB1FA20FB31FA359BD4FCF
:1011D0002C9126FF2EC02081332727FD3095280F24
:1011E000391FF901EE0FFF1FE20FF31FE359FD4F07
:1011F00080818F7361E00E9473131BC080E49CE9BF
:10120000F7019183808307C0888199810496D70173
:1012100011969C938E93F801E350FD4F8FEF8083DE
:1012200008C0888199810496BCE980349B0730F31B
:10123000EBCFDF91CF911F910F91FF90EF90089529
:101240001F920F920FB60F920BB60F9211242F938D
:101250003F934F935F936F937F938F939F93AF933E
:10126000BF93EF93FF9381E090E064E870E048E87B
:1012700050E00E945908FF91EF91BF91AF919F916B
:101280008F917F916F915F914F913F912F910F902F
:101290000BBE0F900FBE0F901F9018951F920F92CC
:1012A0000FB60F920BB60F9211242F933F934F93CB
:1012B0005F936F937F938F939F93AF93BF93EF93BE
:1012C000FF9382E090E064E970E048E950E00E941A
:1012D0005908FF91EF91BF91AF919F918F917F91AD
:1012E0006F915F914F913F912F910F900BBE0F9097
:1012F0000FBE0F901F9018951F920F920FB60F926E
:101300000BB60F9211242F933F934F935F936F93DC
:101310007F938F939F93AF93BF93EF93FF9383E05C
:1013200090E064EA70E048EA50E00E945908FF91BA
:10133000EF91BF91AF919F918F917F916F915F914D
:101340004F913F912F910F900BBE0F900FBE0F90BA
:101350001F9018951F920F920FB60F920BB60F9217
:1013600011242F933F934F935F936F937F938F93AA
:101370009F93AF93BF93EF93FF9380E090E064E27D
:1013800071E048E251E00E945908FF91EF91BF914E
:10139000AF919F918F917F916F915F914F913F910D
:1013A0002F910F900BBE0F900FBE0F901F901895AE
:1013B000FC0180916C02803390F480838F5F809376
:1013C0006C02808190E0FC01EE0FFF1FE80FF91F17
:1013D000E359FD4F88EB9BE09283818308958FEF63
:1013E00080830895DF92EF92FF920F931F93CF9324
:1013F000DF93EC01D62E8A0179018881803308F0D1
:1014000093C0862F61E00E944F134881842F90E0A3
:10141000FC01EE0FFF1FE80FF91FE359FD4F9D2D53
:101420009F738081807C892B808380E292E0801B87
:10143000910B24E030E0B9010E94F119698380E644
:1014400099E08E199F09B9010E94F1196A83842FCE
:101450006CE00E94D11990E09C01220F331F280FED
:10146000391F220F331F220F331F40E050E0BA0113
:10147000620F731FFB01EE0FFF1FE60FF71FE3590B
:10148000FD4F608166FD44C04F5F5F4F4C3051059A
:1014900071F753C01092800082E080938100109217
:1014A000850010928400B19A80916F0082608093D1
:1014B0006F002EC08230910569F41092900082E096
:1014C00080939100109295001092940088BB8093B5
:1014D00071001EC08330910569F41092A00082E073
:1014E0008093A1001092A5001092A40089BB809364
:1014F00072000EC0009761F41092200182E0809388
:10150000210110922501109224018ABB809373005F
:10151000888190E0FC01EE0FFF1FE80FF91FE359EF
:10152000FD4F8081806480838881DF91CF911F91FE
:101530000F91FF90EF90DF9008958130910509F0B1
:10154000B9CFA8CF40E252E020E639E00E94F2098C
:101550000895FC012081203378F54181552747FD0E
:10156000509588E890E0841B950B880F991F880F91
:10157000991F6817790784F04281552747FD5095D8
:1015800088E592E0841B950B880F991F880F991F9F
:10159000681779070CF4CB014FB7F89430E0F901E4
:1015A000EE0FFF1FE20FF31FE359FD4F0297880F65
:1015B000991F928381834FBF0895AF92BF92CF92BC
:1015C000DF92EF92FF920F931F93CF93DF93EC0183
:1015D00082E0603278070CF046C077FD04C0653BBE
:1015E000710524F405C060E070E002C064EB70E0B7
:1015F00000D00F92882777FD8095982F4981552735
:1016000047FD509528E830E0241B350B220F331F8F
:10161000220F331F5901CC24B7FCC094DC2C4A8123
:10162000552747FD509528E532E0241B350B220F46
:10163000331F220F331F442737FD4095542FEDB73A
:10164000FEB7218332834383548320E030E0A90135
:10165000B4EBEB2EF12C012D112D0E9405180F90EB
:101660000F900F900F90CE010E94A90ADF91CF91A9
:101670001F910F91FF90EF90DF90CF90BF90AF90B0
:10168000089585E361E00E94731385E361E00E94A1
:101690004F138CB580618CBD8CB580648CBD84E3A8
:1016A00061E00E944F1383E361E00E944F130895AD
:1016B000CF93DF93C1E0D3E0CE010E942B08CE018F
:1016C00044960E942B08DF91CF9108950E947D06D9
:1016D0000E94670781E18093450210922A031092CD
:1016E000400310925603EAE2F3E01292128280E481
:1016F000868380E187830895FC01608380E484838E
:1017000080E1858308959093710380937003089519
:10171000E0917003F0917103199508956F927F9293
:101720008F929F92AF92BF92CF92DF92EF92FF92F1
:101730000F931F93DF93CF930F92CDB7DEB7C82ED1
:101740004B015A010E941E127B018C0188E893E133
:10175000A0E0B0E0E80EF91E0A1F1B1FDD2466247E
:10176000772420E03CC0D4016C916C2980EF0E946A
:1017700096060BC088EC0E94D90687FF06C088EC4D
:1017800060E80E94960620E011C00E941E126E15AD
:101790007F058007910770F32FEF30E031C088EFAD
:1017A0000E94D906282F2F70213049F429830E94E6
:1017B0001E1229816E157F058007910780F3243062
:1017C00019F02E30B1F407C00894611C711C6A1422
:1017D0007B0429F410C0D394BD2DB33079F0298354
:1017E0000E941E1229816E157F058007910708F45B
:1017F000BACF30E005C024E030E002C02EE030E097
:10180000C9010F90CF91DF911F910F91FF90EF9041
:10181000DF90CF90BF90AF909F908F907F906F9010
:1018200008956F927F928F929F92AF92BF92CF92C4
:10183000DF92EF92FF920F931F93CF93DF93FC0100
:101840007B013A0169015801DB0112968D909C9051
:10185000139780EE60810E94960688EEF7016581FD
:101860000E949606C0E0D0E080E0B701A5010E948A
:101870008E0B009759F588EC0E94D90682FF29C08B
:1018800080E30E94D906682F082F10E088E0A601A7
:101890000E940B076C0188EC64E00E949606C00F62
:1018A000D11F0815190518F0C615D705E8F288EFFD
:1018B0000E94D90684FF06C080E2D70115968C935A
:1018C000159709C080E1F701858305C0CFEFDFEFF1
:1018D00002C0CEEFDFEFCE01DF91CF911F910F91CC
:1018E000FF90EF90DF90CF90BF90AF909F908F9040
:1018F0007F906F9008950F931F93FB01DA01BC0155
:10190000685F7F4F222319F001E010E002C000E081
:101910001DE7AF019D010E94110C1F910F910895C9
:101920002F923F924F925F926F927F928F929F92EF
:10193000AF92BF92CF92DF92EF92FF920F931F93DD
:10194000DF93CF9300D0CDB7DEB7FC017B01A42E8F
:10195000052F922EC32E80EE60810E9496060E9473
:101960001E122B013C0188E893E1A0E0B0E0480E94
:10197000591E6A1E7B1ED70112962C9012972220A8
:1019800009F48DC088EE14966C910E9496064A2D3B
:10199000502F5B834A838C2DC92CD82E20E0332412
:1019A00068C00A811B812016310608F48101802E4F
:1019B00080E1602FA6010E94AE0688E3602F0E949E
:1019C0009606F7016081606280EF0E94960688ECBF
:1019D0000E94D90687FFFBCF88EC60E80E9496063C
:1019E00088EF0E94D906282F2F70AA24BB2499249F
:1019F0002FC00894A11CB11CF0E0AF16FDE7BF0694
:101A000031F450C09394292D233009F44EC088E35B
:101A100060E00E94960680E1D6016C910E949606D5
:101A200088E3682D0E949606F7016081606280EF6E
:101A30000E94960688EC0E94D90687FFFBCF88ECAF
:101A400060E80E94960688EF0E94D906282F2F7022
:101A5000222309F443C029830E941E1229816415A0
:101A6000750586059705D0F5243019F22E30A9F4B6
:101A7000C9CFAA80BB80A114B10409F092CF88EF2E
:101A800029830E94D906298185FF02C080E801C010
:101A900080E4D70114968C93149730E008C02EEFA1
:101AA00030E005C024E030E002C02EE030E0C901A3
:101AB0000F900F900F90CF91DF911F910F91FF909A
:101AC000EF90DF90CF90BF90AF909F908F907F90DE
:101AD0006F905F904F903F902F900895EA81FB8127
:101AE000E01BF10BFB83EA83C00ED11EC2CFFB01CA
:101AF0009A01BC01625F7F4FAF010E94900C089574
:101B00000F931F93E62FBC016E5F7F4FEE2349F0CA
:101B1000E0E2DC011796EC9300E01DE70E94110C57
:101B200006C0E0E8DC011696EC930E94900C1F9131
:101B30000F9108957F928F929F92AF92BF92CF9212
:101B4000DF92EF92FF920F931F93DF93CF93CDB766
:101B5000DEB72A970FB6F894DEBF0FBECDBF4C019B
:101B6000762E80EEF40160812A8749870E949606CE
:101B7000798249854A83902F80E02A8530E0282B9E
:101B8000392B3C832B83FE82ED82D886CF8280E284
:101B900068E0AE014F5F5F4F0E94AE0684010E5FAA
:101BA0001F4F80E1B80140E05DE70E948E0B882363
:101BB000E1F4F72CFF1CFF24FF1CA114B10431F049
:101BC000C4016F2DA60195010E94800DFF2011F028
:101BD00080EA01C080E8B80140E05DE70E948E0B1A
:101BE000882331F02DEF3FEF05C02FEF3FEF02C00C
:101BF00020E030E0C9012A960FB6F894DEBF0FBE90
:101C0000CDBFCF91DF911F910F91FF90EF90DF90AB
:101C1000CF90BF90AF909F908F907F9008952F921C
:101C20003F924F925F926F927F928F929F92AF926C
:101C3000BF92CF92DF92EF92FF920F931F93DF93A9
:101C4000CF930F92CDB7DEB72C01862E942E1901BB
:101C50003801198260E846E0282D03E0E92CFF24D2
:101C600031E0C32ED12C5E010894A11CB11C0E944E
:101C70009A0D97FD2FC0898190E02816390608F447
:101C80002982C980C20160E846E0282D03E0E92CE2
:101C9000FF24DD2453010E949A0D97FD1EC0898107
:101CA00090E0029762E070E00E94F119D301F30125
:101CB00080E090E070E003C0019620812D93329681
:101CC00086179707CCF3660E771EF301108220E08B
:101CD00030E005C02FEF3FEF02C02EEF3FEFC9010C
:101CE0000F90CF91DF911F910F91FF90EF90DF90B8
:101CF000CF90BF90AF909F908F907F906F905F90AC
:101D00004F903F902F900895AF92BF92CF92DF9265
:101D1000EF92FF920F935B0160E846E020E001E064
:101D2000EE24FF2452E1C52ED12C0E949A0D0F9172
:101D3000FF90EF90DF90CF90BF90AF9008954F92BB
:101D40005F926F927F928F929F92AF92BF92CF924B
:101D5000DF92EF92FF920F931F93CF93DF932C01AB
:101D6000162F3A01490160E846E0212F02E0EE24F7
:101D7000FF2474E0C72ED12C54010E949A0D0097C5
:101D8000D1F4F401938180E02281C22FD0E0C82BEE
:101D9000D92B6C167D0608F4E301C20160E846E029
:101DA000212F02E0EE24FF246E0154010E949A0DBF
:101DB000009731F003C0CFEFDFEF02C0CEEFDFEFCF
:101DC000CE01DF91CF911F910F91FF90EF90DF90A7
:101DD000CF90BF90AF909F908F907F906F905F90CB
:101DE0004F900895AF92BF92CF92DF92EF92FF9201
:101DF0000F93262F60E045E000E0EE24FF24CC2482
:101E0000DD24AA24BB240E949A0D0F91FF90EF902D
:101E1000DF90CF90BF90AF900895EF92FF920F9315
:101E20001F93DF93CF93CDB7DEB762970FB6F894C9
:101E3000DEBF0FBECDBF0E94AB070E9436078130C8
:101E400029F0813028F0843000F509C083E11BC0FF
:101E500080914502807F8031C1F081E114C0809182
:101E60004502807F803189F40E941E1268537F4FA3
:101E70008F4F9F4F60936C0370936D0380936E033D
:101E800090936F0380E280934502109145021034D5
:101E900009F440C0113440F4103221F11033A1F1A3
:101EA000113109F0C8C010C0103609F469C01037EC
:101EB00021F0103509F0BFC04CC080914003882349
:101EC00009F477C042E09DC080914003882331F03F
:101ED0008FE393E061E070E00E94880B0E94660B44
:101EE00082E1A7C0E0906C03F0906D0300916E0357
:101EF00010916F030E941E12E616F70608071907D5
:101F000008F099C080E395C088EE61E00E949606D3
:101F100080E48FC088EE0E94D90680FD8CC088EDD9
:101F20000E94D906682F686088ED0E94960680E5B9
:101F3000809345020E941E126C5E7F4F8F4F9F4F11
:101F400060936C0370936D0380936E0390936F03A3
:101F500072C088EC0E94D90686FF6DC0E0906C03C9
:101F6000F0906D0300916E0310916F030E941E129A
:101F7000E616F7060807190708F05DC080E659C0A5
:101F800088E090E090932E0380932D0389E293E004
:101F9000BE016F5F7F4F0E94840E882339F48885CD
:101FA00080932D0310922E0380E743C010936B03A0
:101FB0003FC081E080933F03809340031092410330
:101FC00080E48093450380E18093460389E293E0B7
:101FD00061E00E94F20E882341F48FE393E060E019
:101FE00070E00E94880B80E909C08FE393E062E013
:101FF00070E00E94880B10936B0380EA8093450287
:1020000041E0809145028037B1F450E026E130E0B4
:10201000429FC001439F900D529F900D1124875DF8
:102020009C4F62E070E00E94880B8EEF80936B0300
:1020300080EA8093450262960FB6F894DEBF0FBE29
:10204000CDBFCF91DF911F910F91FF90EF90089539
:10205000AF92BF92CF92DF92EF92FF920F93262F13
:1020600060E049E000E0EE24FF24CC24DD24AA2433
:10207000BB240E949A0D0F91FF90EF90DF90CF90BC
:10208000BF90AF900895EF92FF920F931F93DF934D
:10209000CF9300D00F92CDB7DEB77C010E942810FD
:1020A000C70160E040E024E030E08E010F5F1F4F89
:1020B0000E940F0E2C81332727FD3095322F2227C7
:1020C0004B81552747FD5095242B352BF701358B38
:1020D000248B90E00F900F900F900F90CF91DF9195
:1020E0001F910F91FF90EF900895CB01B9018530BA
:1020F000910531F480917703909178030E94FF0756
:102100000895CF92DF92EF92FF920F931F93CF9398
:10211000DF93C6E4D2E08CE4E82E82E0F82E6E0174
:10212000888161E00E944F138701F701808161E09F
:102130000E944F132296F601808160E070E00E94B9
:10214000FB1082E090E0E80EF91EF801808161E06A
:102150000E947313F2E0CE34DF0709F7DF91CF91CD
:102160001F910F91FF90EF90DF90CF900895CF9344
:10217000DF93C2E7D3E0CE0162E070E00E94A20AE2
:10218000CE016AE570E00E94DD0ADF91CF910895EB
:1021900087E161E00E944F1387E160E00E947313C2
:1021A000089582EA95E040E051EE60E070E00E9420
:1021B00064160E9481100E94B7100E94C8100E94ED
:1021C000DF0790937803809377030E94380184E3BC
:1021D00092E061E045E750E10E946C019093760344
:1021E0008093750308950E94AB04089582E793E0FD
:1021F0000E94D80908951F93CF93DF93182FEB0106
:1022000061E00E944F13209709F4C5C0CF3FD1056C
:1022100009F4C4C0E12FF0E0E254FE4FE491E9304C
:1022200009F466C0EA30B0F4E430F1F1E53040F48E
:10223000E23059F1E33070F5E13009F0A9C020C077
:10224000E73009F443C0E83008F048C0E63009F050
:102250009FC034C0ED3009F473C0EE3038F4EB3079
:1022600009F45AC0EC3008F061C04CC0E03109F408
:102270007BC0E13109F482C0EF3009F089C06AC047
:1022800084B5806884BDC7BD8DC084B5806284BDBF
:10229000C8BD88C080918000806880938000D09302
:1022A0008900C09388007EC0809180008062809306
:1022B0008000D0938B00C0938A0074C08091B000DE
:1022C00080688093B000C093B3006CC08091B00070
:1022D00080628093B000C093B40064C0809190008D
:1022E000806880939000D0939900C09398005AC062
:1022F00080919000806280939000D0939B00C09367
:102300009A0050C080919000886080939000D09394
:102310009D00C0939C0046C08091A000806880937F
:10232000A000D093A900C093A8003CC08091A00059
:1023300080628093A000D093AB00C093AA0032C00B
:102340008091A00088608093A000D093AD00C093DE
:10235000AC0028C080912001806880932001D09338
:102360002901C09328011EC08091200180628093C2
:102370002001D0932B01C0932A0114C08091200129
:10238000886080932001D0932D01C0932C010AC056
:10239000C038D1051CF4812F60E002C0812F61E0BC
:1023A0000E947313DF91CF911F9108951F920F9296
:1023B0000FB60F9211242F933F938F939F93AF9358
:1023C000BF9380917D0390917E03A0917F03B09194
:1023D0008003309181030196A11DB11D232F2D5F34
:1023E0002D3720F02D570196A11DB11D209381039B
:1023F00080937D0390937E03A0937F03B09380032B
:102400008091790390917A03A0917B03B0917C0332
:102410000196A11DB11D8093790390937A03A09337
:102420007B03B0937C03BF91AF919F918F913F91BC
:102430002F910F900FBE0F901F9018958FB7F894A3
:1024400020917D0330917E0340917F035091800362
:102450008FBFB901CA0108959FB7F89420917903FD
:1024600030917A0340917B0350917C0386B5A89B01
:1024700006C08F3F21F02F5F3F4F4F4F5F4F9FBFF1
:10248000542F432F322F2227280F311D411D511D5C
:1024900082E0220F331F441F551F8A95D1F7B901DF
:1024A000CA010895EF92FF920F931F93CF93DF938A
:1024B0007B018C010E942C12EB010FC00E942C1298
:1024C0006C1B7D0B83E0683E780738F00894E108C8
:1024D000F10801091109C851DC4FE114F1040105AB
:1024E000110561F7DF91CF911F910F91FF90EF9050
:1024F0000895789484B5826084BD84B5816084BD7C
:1025000085B5826085BD85B5816085BDEEE6F0E06C
:10251000808181608083E1E8F0E0108280818260C8
:102520008083808181608083E0E8F0E08081816049
:102530008083E1EBF0E0808184608083E0EBF0E079
:10254000808181608083E1E9F0E080818260808326
:10255000808181608083E0E9F0E080818160808318
:10256000E1EAF0E080818260808380818160808305
:10257000E0EAF0E0808181608083E1E2F1E0808147
:1025800082608083808181608083E0E2F1E08081ED
:1025900081608083EAE7F0E08081846080838081CD
:1025A0008260808380818160808380818068808375
:1025B0001092C1000895893009F449C08A30A0F40E
:1025C000843051F1853040F4823079F1833000F568
:1025D000813009F063C026C0873079F1883098F5E2
:1025E000863009F05BC025C08D3009F442C08E30C2
:1025F00028F48B30B1F18C30C0F52DC0803109F456
:1026000042C0813109F445C08F3009F047C037C05E
:10261000809180008F7703C0809180008F7D8093B0
:102620008000089584B58F7702C084B58F7D84BD06
:1026300008958091B0008F7703C08091B0008F7DA6
:102640008093B0000895809190008F7707C08091AB
:1026500090008F7D03C080919000877F80939000D1
:1026600008958091A0008F7707C08091A0008F7D92
:1026700003C08091A000877F8093A000089580917F
:1026800020018F7703C0809120018F7D80932001EE
:10269000089580912001877F80932001089590E024
:1026A000FC01E858FE4F2491FC01EE5CFE4FE491E2
:1026B000EE23C1F0F0E0EE0FFF1FEC51FF4F8591CC
:1026C0009491DC01662341F49FB7F8948C91209596
:1026D00082238C939FBF08959FB7F8948C91822B8F
:1026E0008C939FBF08950F931F93DF93CF930F9207
:1026F000CDB7DEB7282F30E0F901E254FE4F8491C8
:10270000F901E858FE4F14912E5C3E4FF9010491F7
:102710000023D9F0882321F069830E94DB126981AC
:10272000E02FF0E0EE0FFF1FE250FF4F85919491F4
:10273000DC019FB7F894662321F48C9110958123D6
:1027400002C08C91812B8C939FBF0F90CF91DF9112
:102750001F910F910895FC0184859585FC01E05C33
:10276000FF4F208131818E5B9F4FFC0180819181E1
:10277000281B390B2F733070C9010895FC01848523
:102780009585FC01E05CFF4F40815181FC01EE5BCF
:10279000FF4F208131814217530741F00190F081B2
:1027A000E02DE80FF91F208130E002C02FEF3FEF4E
:1027B000C9010895FC0184859585FC01E05CFF4F0B
:1027C00040815181FC01EE5BFF4F20813181421736
:1027D000530771F0A081B181A80FB91F2C9180819E
:1027E000918101968F7390709183808330E002C055
:1027F0002FEF3FEFC9010895DC011E968D919C914A
:102800001F97FC01E05CFF4F8E5B9F4F4081518121
:10281000DC012D913C91119742175307B9F70895A8
:102820001F93FC01162F26853785D901A05CBF4F69
:102830008D919C91019660E470E00E94F119D9019C
:10284000AE5BBF4F4D915C91119784179507D1F303
:10285000D901A05CBF4F0D90BC91A02DA20FB31F5A
:102860001C93A685B785A05CBF4F11969C938E9351
:10287000A689B7892C9181E090E0058C02C0880F71
:10288000991F0A94E2F7282B2C9381E090E01F9186
:102890000895FB01E05CFF4F208131812F5F3F4FA6
:1028A0002F733070DB01AE5BBF4F4D915C91119780
:1028B0002417350739F0A081B181A60FB71F8C937B
:1028C00031832083089508951F920F920FB60F92BF
:1028D0000BB60F9211242F933F934F935F936F93F7
:1028E0007F938F939F93AF93BF93EF93FF938091C9
:1028F000C60062E873E00E944914FF91EF91BF9116
:10290000AF919F918F917F916F915F914F913F9187
:102910002F910F900BBE0F900FBE0F901F90189528
:1029200008951F920F920FB60F920BB60F921124BB
:102930002F933F934F935F936F937F938F939F93C7
:10294000AF93BF93EF93FF938091CE006AE074E062
:102950000E944914FF91EF91BF91AF919F918F9188
:102960007F916F915F914F913F912F910F900BBE8F
:102970000F900FBE0F901F90189508951F920F9201
:102980000FB60F920BB60F9211242F933F934F93D4
:102990005F936F937F938F939F93AF93BF93EF93C7
:1029A000FF938091D60062E974E00E944914FF9180
:1029B000EF91BF91AF919F918F917F916F915F91B7
:1029C0004F913F912F910F900BBE0F900FBE0F9024
:1029D0001F90189508951F920F920FB60F920BB685
:1029E0000F9211242F933F934F935F936F937F9395
:1029F0008F939F93AF93BF93EF93FF938091360193
:102A00006AE175E00E944914FF91EF91BF91AF9187
:102A10009F918F917F916F915F914F913F912F91F6
:102A20000F900BBE0F900FBE0F901F90189582EA6B
:102A300095E00E94AB13009711F00E94631481ECA3
:102A400095E00E94AB13009711F00E94901480EE65
:102A500095E00E94AB13009711F00E94BD148FEF18
:102A600095E00E94AB13009711F00E94EA140895BC
:102A70001F920F920FB60F920BB60F9211242F9345
:102A80003F935F936F937F938F939F93AF93BF9386
:102A9000EF93FF932091060430910704809108047E
:102AA000909109042817390731F48091C1008F7D76
:102AB0008093C10016C0E0910804F0910904EA5324
:102AC000FC4F20818091080490910904019660E4F4
:102AD00070E00E94F11990930904809308042093F8
:102AE000C600FF91EF91BF91AF919F918F917F9120
:102AF0006F915F913F912F910F900BBE0F900FBE82
:102B00000F901F9018951F920F920FB60F920BB651
:102B10000F9211242F933F935F936F937F938F9323
:102B20009F93AF93BF93EF93FF9320918E043091C7
:102B30008F0480919004909191042817390731F403
:102B40008091C9008F7D8093C90016C0E0919004E8
:102B5000F0919104E25BFB4F208180919004909171
:102B60009104019660E470E00E94F1199093910441
:102B7000809390042093CE00FF91EF91BF91AF918D
:102B80009F918F917F916F915F913F912F910F90C6
:102B90000BBE0F900FBE0F901F9018951F920F92B3
:102BA0000FB60F920BB60F9211242F933F935F93A2
:102BB0006F937F938F939F93AF93BF93EF93FF9305
:102BC00020911605309117058091180590911905EF
:102BD0002817390731F48091D1008F7D8093D1007F
:102BE00016C0E0911805F0911905EA52FB4F2081BB
:102BF0008091180590911905019660E470E00E949B
:102C0000F11990931905809318052093D600FF9130
:102C1000EF91BF91AF919F918F917F916F915F9154
:102C20003F912F910F900BBE0F900FBE0F901F90F2
:102C300018951F920F920FB60F920BB60F92112498
:102C40002F933F935F936F937F938F939F93AF9354
:102C5000BF93EF93FF9320919E0530919F05809144
:102C6000A0059091A1052817390731F48091310111
:102C70008F7D8093310116C0E091A005F091A105F0
:102C8000E25AFA4F20818091A0059091A10501960A
:102C900060E470E00E94F1199093A1058093A00573
:102CA00020933601FF91EF91BF91AF919F918F914A
:102CB0007F916F915F913F912F910F900BBE0F907D
:102CC0000FBE0F901F901895DF92EF92FF920F9317
:102CD0001F93CF93DF93EC017A018B01DD24D39412
:102CE000403081EE580780E0680780E0780749F4BB
:102CF000DD24EC89FD89108260E874E88EE190E0C3
:102D00000FC0EC89FD8981E090E00E8C02C0880F35
:102D1000991F0A94E2F7808360E079E08DE390E008
:102D2000A80197010E94041A2150304040405040B1
:102D3000569547953795279580E12030380710F054
:102D4000DD20B1F6E889F9893083EA89FB8920839F
:102D5000EE89FF89408181E090E09C010A8C02C0ED
:102D6000220F331F0A94E2F7422B4083EE89FF893A
:102D700040819C010B8C02C0220F331F0A94E2F7A2
:102D8000422B4083EE89FF8940819C010C8C02C05C
:102D9000220F331F0A94E2F7422B4083EE89FF890A
:102DA00020810D8C02C0880F991F0A94E2F780954C
:102DB00082238083DF91CF911F910F91FF90EF903D
:102DC000DF9008951F93CF93DF931092A505109283
:102DD000A40588EE93E0A0E0B0E08093A605909370
:102DE000A705A093A805B093A905E4EAF5E026E5B8
:102DF00032E03293229342E853E05587448746EC11
:102E000053E05787468745EC50E0518B408B44ECAC
:102E100050E0538B428B40EC50E0558B448B41EC9F
:102E200050E0578B468B46EC50E0518F408F14E0BA
:102E3000128F73E0738F67E0648F55E0558F41E028
:102E4000468F1092C4051092C3058093C5059093D8
:102E5000C605A093C705B093C805E3ECF5E032932F
:102E60002293CAE0D4E0D587C487CEE4D4E0D787E4
:102E7000C687CDECD0E0D18BC08BCCECD0E0D38B2F
:102E8000C28BC8ECD0E0D58BC48BC9ECD0E0D78B1B
:102E9000C68BCEECD0E0D18FC08F128F738F648F32
:102EA000558F468F1092E3051092E2058093E4055A
:102EB0009093E505A093E605B093E705E2EEF5E013
:102EC00032932293C2E9D4E0D587C487C6EDD4E01B
:102ED000D787C687C5EDD0E0D18BC08BC4EDD0E0DD
:102EE000D38BC28BC0EDD0E0D58BC48BC1EDD0E0CD
:102EF000D78BC68BC6EDD0E0D18FC08F128F738F6A
:102F0000648F558F468F10920206109201068093AF
:102F1000030690930406A0930506B0930606E1E02D
:102F2000F6E0329322938AE195E0958784878EE5D7
:102F300095E09787868785E391E0918B808B84E38A
:102F400091E0938B828B80E391E0958B848B81E37E
:102F500091E0978B868B86E391E0918F808F128F23
:102F6000738F648F558F468FDF91CF911F91089596
:102F7000CF93DF930E9479120E94D110C7E1D5E16F
:102F80000E94F3102097E1F30E941715F9CFCF921A
:102F9000DF92EF92FF920F931F93CF93DF936C0119
:102FA0007B018A01C0E0D0E00FC0D7016D917D01A7
:102FB000D601ED91FC910190F081E02DC6011995AB
:102FC000C80FD91F015010400115110571F7CE012E
:102FD000DF91CF911F910F91FF90EF90DF90CF90F5
:102FE0000895DB010D900020E9F7AD0141505040FC
:102FF000461B570BDC01ED91FC910280F381E02D23
:10300000199508950E94F11708952F923F924F92BB
:103010005F926F927F928F929F92AF92BF92CF9268
:10302000DF92EF92FF920F931F93DF93CF93CDB771
:10303000DEB73B014C0119012A016E897F89888D19
:10304000998D6A197B098C099D09621A730A840A91
:10305000950AA40193010E94B219E218F308040929
:103060001509A80197010E94261A2A0D3B1D4C1D27
:103070005D1DB901CA01CF91DF911F910F91FF90A2
:10308000EF90DF90CF90BF90AF909F908F907F9008
:103090006F905F904F903F902F900895CF93DF9364
:1030A0008230910510F482E090E0E0912006F091EA
:1030B000210640E050E020E030E026C060817181D0
:1030C00068177907E0F06817790781F482819381A6
:1030D0002115310531F0D90113969C938E931297E7
:1030E0002BC0909321068093200626C041155105E0
:1030F00019F06417750718F4AB01E901DF019F01AE
:1031000072816381E72FF62F3097C1F64115510583
:1031100001F1481B590B4430510580F412968D91F2
:103120009C911397209719F09B838A8304C09093F6
:10313000210680932006FD01329646C0FD01E40F72
:10314000F51F819391934250504011965C934E939A
:103150003BC020911E0630911F062115310541F418
:1031600020913F023091400230931F0620931E06AB
:1031700020914102309142022115310541F42DB7D1
:103180003EB740913D0250913E02241B350BE09129
:103190001E06F0911F06E217F307A0F42E1B3F0B4B
:1031A0002817390778F0AC014E5F5F4F24173507B9
:1031B00048F04E0F5F1F50931F0640931E068193E9
:1031C000919302C0E0E0F0E0CF01DF91CF9108954C
:1031D000CF93DF93009709F491C0FC0132971382DB
:1031E000128260912006709121066115710581F4AB
:1031F00020813181280F391F80911E0690911F0672
:103200008217930799F5F0931F06E0931E0676C088
:10321000DB0180E090E002C0CD01D901AE17BF070D
:1032200048F412962D913C91139721153105A1F781
:10323000CD0121C0B383A283EF01499159919E0131
:10324000240F351FA217B30779F42D913C911197E4
:10325000240F351F2E5F3F4F3183208312962D910F
:103260003C91139733832283009729F4F09321062E
:10327000E093200643C0DC011396FC93EE93129773
:103280004D915D91A40FB51FEA17FB0769F42081EA
:103290003181240F351F2E5F3F4FEC013983288386
:1032A000228133813B832A83E0E0F0E002C0FB010E
:1032B000BC01DB0112968D919C9113970097B9F791
:1032C0009B012E5F3F4F8D919C911197820F931F11
:1032D00040911E0650911F064817590779F4309700
:1032E00029F4109221061092200602C01382128245
:1032F0002250304030931F0620931E06DF91CF915D
:103300000895F8940C94451AEF92FF920F931F932F
:10331000DF93CF930F920F92CDB7DEB7BC01DC01E4
:103320000D900020E9F7CD01861B970B69837A8306
:103330000E944E188C0169817A81009711F00E94D9
:10334000AB19C8010F900F90CF91DF911F910F9192
:10335000FF90EF900895FB01DC0101900D92002099
:10336000E1F70895629FD001739FF001829FE00D05
:10337000F11D649FE00DF11D929FF00D839FF00DF4
:10338000749FF00D659FF00D9927729FB00DE11DA0
:10339000F91F639FB00DE11DF91FBD01CF0111247D
:1033A0000895991B79E004C0991F961708F0961BA1
:1033B000881F7A95C9F780950895AA1BBB1B51E118
:1033C00007C0AA1FBB1FA617B70710F0A61BB70B95
:1033D000881F991F5A95A9F780959095BC01CD013A
:1033E000089597FB092E07260AD077FD04D0E5DF64
:1033F00006D000201AF4709561957F4F0895F6F776
:10340000909581959F4F0895A1E21A2EAA1BBB1B90
:10341000FD010DC0AA1FBB1FEE1FFF1FA217B307A0
:10342000E407F50720F0A21BB30BE40BF50B661FB6
:10343000771F881F991F1A9469F76095709580957A
:1034400090959B01AC01BD01CF01089597FB092E1A
:1034500005260ED057FD04D0D7DF0AD0001C38F463
:1034600050954095309521953F4F4F4F5F4F0895B0
:10347000F6F790958095709561957F4F8F4F9F4F90
:0E34800008950790F691E02D1994F894FFCF6F
:10348E00686F73743A3A6D6963726F6272696467DA
:10349E0065004572726F723A204F53434F4B49523B
:1034AE0051206661696C656420746F206173736569
:1034BE0072740A007463703A343536380020002274
:1034CE0006000001001109000A000B002E0030005A
:1034DE002200000000001014C717AB13DA13BE133E
:0234EE00FC13CD
:00000001FF
